{
	"SimpleStorage.sol": {
		"SimpleStorage": {
			"abi": [
				{
					"inputs": [
						{
							"internalType": "string",
							"name": "name",
							"type": "string"
						},
						{
							"internalType": "int256",
							"name": "numb",
							"type": "int256"
						}
					],
					"name": "addNamesToList",
					"outputs": [],
					"stateMutability": "nonpayable",
					"type": "function"
				},
				{
					"inputs": [
						{
							"internalType": "uint256",
							"name": "",
							"type": "uint256"
						}
					],
					"name": "names",
					"outputs": [
						{
							"internalType": "int256",
							"name": "num",
							"type": "int256"
						},
						{
							"internalType": "string",
							"name": "name",
							"type": "string"
						}
					],
					"stateMutability": "view",
					"type": "function"
				},
				{
					"inputs": [],
					"name": "p2",
					"outputs": [
						{
							"internalType": "int256",
							"name": "num",
							"type": "int256"
						},
						{
							"internalType": "string",
							"name": "name",
							"type": "string"
						}
					],
					"stateMutability": "view",
					"type": "function"
				},
				{
					"inputs": [],
					"name": "retrieve",
					"outputs": [
						{
							"internalType": "int256",
							"name": "",
							"type": "int256"
						}
					],
					"stateMutability": "view",
					"type": "function"
				},
				{
					"inputs": [
						{
							"internalType": "int256",
							"name": "myNumber",
							"type": "int256"
						}
					],
					"name": "store",
					"outputs": [],
					"stateMutability": "nonpayable",
					"type": "function"
				}
			],
			"devdoc": {
				"kind": "dev",
				"methods": {},
				"version": 1
			},
			"evm": {
				"assembly": "    /* \"SimpleStorage.sol\":74:1015  contract SimpleStorage{... */\n  mstore(0x40, 0x80)\n    /* \"SimpleStorage.sol\":118:122  true */\n  0x01\n    /* \"SimpleStorage.sol\":103:122  bool hasdone = true */\n  0x00\n  dup1\n  0x0100\n  exp\n  dup2\n  sload\n  dup2\n  0xff\n  mul\n  not\n  and\n  swap1\n  dup4\n  iszero\n  iszero\n  mul\n  or\n  swap1\n  sstore\n  pop\n    /* \"SimpleStorage.sol\":155:159  1002 */\n  0x03ea\n    /* \"SimpleStorage.sol\":140:159  uint favnum =  1002 */\n  0x01\n  sstore\n    /* \"SimpleStorage.sol\":209:236  string val = \"sndkjbckjdna\" */\n  mload(0x40)\n  dup1\n  0x40\n  add\n  0x40\n  mstore\n  dup1\n  0x0c\n  dup2\n  mstore\n  0x20\n  add\n  0x736e646b6a62636b6a646e610000000000000000000000000000000000000000\n  dup2\n  mstore\n  pop\n  0x02\n  swap1\n  dup2\n  tag_1\n  swap2\n  swap1\n  tag_2\n  jump\t// in\ntag_1:\n  pop\n    /* \"SimpleStorage.sol\":263:305  0x83F136701D8f280e9F44D01AE762cC12670555f4 */\n  0x83f136701d8f280e9f44d01ae762cc12670555f4\n    /* \"SimpleStorage.sol\":243:305  address myAddress = 0x83F136701D8f280e9F44D01AE762cC12670555f4 */\n  0x03\n  exp(0x0100, 0x00)\n  dup2\n  sload\n  dup2\n  0xffffffffffffffffffffffffffffffffffffffff\n  mul\n  not\n  and\n  swap1\n  dup4\n  0xffffffffffffffffffffffffffffffffffffffff\n  and\n  mul\n  or\n  swap1\n  sstore\n  pop\n    /* \"SimpleStorage.sol\":312:340  bytes32 simplicity = \"hello\" */\n  sstore(0x04, 0x68656c6c6f000000000000000000000000000000000000000000000000000000)\n    /* \"SimpleStorage.sol\":434:435  0 */\n  0x00\n    /* \"SimpleStorage.sol\":424:435  int num = 0 */\n  0x05\n  sstore\n    /* \"SimpleStorage.sol\":444:476  uint[] numbers = [1, 2, 3, 4, 5] */\n  mload(0x40)\n  dup1\n  0xa0\n  add\n  0x40\n  mstore\n  dup1\n    /* \"SimpleStorage.sol\":462:463  1 */\n  0x01\n    /* \"SimpleStorage.sol\":444:476  uint[] numbers = [1, 2, 3, 4, 5] */\n  0xff\n  and\n  dup2\n  mstore\n  0x20\n  add\n    /* \"SimpleStorage.sol\":465:466  2 */\n  0x02\n    /* \"SimpleStorage.sol\":444:476  uint[] numbers = [1, 2, 3, 4, 5] */\n  0xff\n  and\n  dup2\n  mstore\n  0x20\n  add\n    /* \"SimpleStorage.sol\":468:469  3 */\n  0x03\n    /* \"SimpleStorage.sol\":444:476  uint[] numbers = [1, 2, 3, 4, 5] */\n  0xff\n  and\n  dup2\n  mstore\n  0x20\n  add\n    /* \"SimpleStorage.sol\":471:472  4 */\n  0x04\n    /* \"SimpleStorage.sol\":444:476  uint[] numbers = [1, 2, 3, 4, 5] */\n  0xff\n  and\n  dup2\n  mstore\n  0x20\n  add\n    /* \"SimpleStorage.sol\":474:475  5 */\n  0x05\n    /* \"SimpleStorage.sol\":444:476  uint[] numbers = [1, 2, 3, 4, 5] */\n  0xff\n  and\n  dup2\n  mstore\n  pop\n  0x06\n  swap1\n  0x05\n  tag_3\n  swap3\n  swap2\n  swap1\n  tag_4\n  jump\t// in\ntag_3:\n  pop\n    /* \"SimpleStorage.sol\":566:586  Person(11,\"person1\") */\n  mload(0x40)\n  dup1\n  0x40\n  add\n  0x40\n  mstore\n  dup1\n    /* \"SimpleStorage.sol\":573:575  11 */\n  0x0b\n    /* \"SimpleStorage.sol\":566:586  Person(11,\"person1\") */\n  dup2\n  mstore\n  0x20\n  add\n  mload(0x40)\n  dup1\n  0x40\n  add\n  0x40\n  mstore\n  dup1\n  0x07\n  dup2\n  mstore\n  0x20\n  add\n  0x706572736f6e3100000000000000000000000000000000000000000000000000\n  dup2\n  mstore\n  pop\n  dup2\n  mstore\n  pop\n    /* \"SimpleStorage.sol\":553:586  Person p1 =  Person(11,\"person1\") */\n  0x07\n  0x00\n  dup3\n  add\n  mload\n  dup2\n  0x00\n  add\n  sstore\n  0x20\n  dup3\n  add\n  mload\n  dup2\n  0x01\n  add\n  swap1\n  dup2\n  tag_5\n  swap2\n  swap1\n  tag_2\n  jump\t// in\ntag_5:\n  pop\n  pop\n  pop\n    /* \"SimpleStorage.sol\":613:645  Person({name :\"person1\",num:11}) */\n  mload(0x40)\n  dup1\n  0x40\n  add\n  0x40\n  mstore\n  dup1\n    /* \"SimpleStorage.sol\":641:643  11 */\n  0x0b\n    /* \"SimpleStorage.sol\":613:645  Person({name :\"person1\",num:11}) */\n  dup2\n  mstore\n  0x20\n  add\n  mload(0x40)\n  dup1\n  0x40\n  add\n  0x40\n  mstore\n  dup1\n  0x07\n  dup2\n  mstore\n  0x20\n  add\n  0x706572736f6e3100000000000000000000000000000000000000000000000000\n  dup2\n  mstore\n  pop\n  dup2\n  mstore\n  pop\n    /* \"SimpleStorage.sol\":593:645  Person public p2 =  Person({name :\"person1\",num:11}) */\n  0x09\n  0x00\n  dup3\n  add\n  mload\n  dup2\n  0x00\n  add\n  sstore\n  0x20\n  dup3\n  add\n  mload\n  dup2\n  0x01\n  add\n  swap1\n  dup2\n  tag_6\n  swap2\n  swap1\n  tag_2\n  jump\t// in\ntag_6:\n  pop\n  pop\n  pop\n    /* \"SimpleStorage.sol\":74:1015  contract SimpleStorage{... */\n  callvalue\n  dup1\n  iszero\n  tag_7\n  jumpi\n  0x00\n  dup1\n  revert\ntag_7:\n  pop\n  jump(tag_8)\ntag_4:\n  dup3\n  dup1\n  sload\n  dup3\n  dup3\n  sstore\n  swap1\n  0x00\n  mstore\n  keccak256(0x00, 0x20)\n  swap1\n  dup2\n  add\n  swap3\n  dup3\n  iszero\n  tag_9\n  jumpi\n  swap2\n  0x20\n  mul\n  dup3\n  add\ntag_10:\n  dup3\n  dup2\n  gt\n  iszero\n  tag_11\n  jumpi\n  dup3\n  mload\n  dup3\n  swap1\n  0xff\n  and\n  swap1\n  sstore\n  swap2\n  0x20\n  add\n  swap2\n  swap1\n  0x01\n  add\n  swap1\n  jump(tag_10)\ntag_11:\ntag_9:\n  pop\n  swap1\n  pop\n  tag_12\n  swap2\n  swap1\n  tag_13\n  jump\t// in\ntag_12:\n  pop\n  swap1\n  jump\t// out\ntag_13:\ntag_14:\n  dup1\n  dup3\n  gt\n  iszero\n  tag_15\n  jumpi\n  0x00\n  dup2\n  0x00\n  swap1\n  sstore\n  pop\n  0x01\n  add\n  jump(tag_14)\ntag_15:\n  pop\n  swap1\n  jump\t// out\n    /* \"#utility.yul\":7:106   */\ntag_16:\n    /* \"#utility.yul\":59:65   */\n  0x00\n    /* \"#utility.yul\":93:98   */\n  dup2\n    /* \"#utility.yul\":87:99   */\n  mload\n    /* \"#utility.yul\":77:99   */\n  swap1\n  pop\n    /* \"#utility.yul\":7:106   */\n  swap2\n  swap1\n  pop\n  jump\t// out\n    /* \"#utility.yul\":112:292   */\ntag_17:\n    /* \"#utility.yul\":160:237   */\n  0x4e487b7100000000000000000000000000000000000000000000000000000000\n    /* \"#utility.yul\":157:158   */\n  0x00\n    /* \"#utility.yul\":150:238   */\n  mstore\n    /* \"#utility.yul\":257:261   */\n  0x41\n    /* \"#utility.yul\":254:255   */\n  0x04\n    /* \"#utility.yul\":247:262   */\n  mstore\n    /* \"#utility.yul\":281:285   */\n  0x24\n    /* \"#utility.yul\":278:279   */\n  0x00\n    /* \"#utility.yul\":271:286   */\n  revert\n    /* \"#utility.yul\":298:478   */\ntag_18:\n    /* \"#utility.yul\":346:423   */\n  0x4e487b7100000000000000000000000000000000000000000000000000000000\n    /* \"#utility.yul\":343:344   */\n  0x00\n    /* \"#utility.yul\":336:424   */\n  mstore\n    /* \"#utility.yul\":443:447   */\n  0x22\n    /* \"#utility.yul\":440:441   */\n  0x04\n    /* \"#utility.yul\":433:448   */\n  mstore\n    /* \"#utility.yul\":467:471   */\n  0x24\n    /* \"#utility.yul\":464:465   */\n  0x00\n    /* \"#utility.yul\":457:472   */\n  revert\n    /* \"#utility.yul\":484:804   */\ntag_19:\n    /* \"#utility.yul\":528:534   */\n  0x00\n    /* \"#utility.yul\":565:566   */\n  0x02\n    /* \"#utility.yul\":559:563   */\n  dup3\n    /* \"#utility.yul\":555:567   */\n  div\n    /* \"#utility.yul\":545:567   */\n  swap1\n  pop\n    /* \"#utility.yul\":612:613   */\n  0x01\n    /* \"#utility.yul\":606:610   */\n  dup3\n    /* \"#utility.yul\":602:614   */\n  and\n    /* \"#utility.yul\":633:651   */\n  dup1\n    /* \"#utility.yul\":623:704   */\n  tag_41\n  jumpi\n    /* \"#utility.yul\":689:693   */\n  0x7f\n    /* \"#utility.yul\":681:687   */\n  dup3\n    /* \"#utility.yul\":677:694   */\n  and\n    /* \"#utility.yul\":667:694   */\n  swap2\n  pop\n    /* \"#utility.yul\":623:704   */\ntag_41:\n    /* \"#utility.yul\":751:753   */\n  0x20\n    /* \"#utility.yul\":743:749   */\n  dup3\n    /* \"#utility.yul\":740:754   */\n  lt\n    /* \"#utility.yul\":720:738   */\n  dup2\n    /* \"#utility.yul\":717:755   */\n  sub\n    /* \"#utility.yul\":714:798   */\n  tag_42\n  jumpi\n    /* \"#utility.yul\":770:788   */\n  tag_43\n  tag_18\n  jump\t// in\ntag_43:\n    /* \"#utility.yul\":714:798   */\ntag_42:\n    /* \"#utility.yul\":535:804   */\n  pop\n    /* \"#utility.yul\":484:804   */\n  swap2\n  swap1\n  pop\n  jump\t// out\n    /* \"#utility.yul\":810:951   */\ntag_20:\n    /* \"#utility.yul\":859:863   */\n  0x00\n    /* \"#utility.yul\":882:885   */\n  dup2\n    /* \"#utility.yul\":874:885   */\n  swap1\n  pop\n    /* \"#utility.yul\":905:908   */\n  dup2\n    /* \"#utility.yul\":902:903   */\n  0x00\n    /* \"#utility.yul\":895:909   */\n  mstore\n    /* \"#utility.yul\":939:943   */\n  0x20\n    /* \"#utility.yul\":936:937   */\n  0x00\n    /* \"#utility.yul\":926:944   */\n  keccak256\n    /* \"#utility.yul\":918:944   */\n  swap1\n  pop\n    /* \"#utility.yul\":810:951   */\n  swap2\n  swap1\n  pop\n  jump\t// out\n    /* \"#utility.yul\":957:1050   */\ntag_21:\n    /* \"#utility.yul\":994:1000   */\n  0x00\n    /* \"#utility.yul\":1041:1043   */\n  0x20\n    /* \"#utility.yul\":1036:1038   */\n  0x1f\n    /* \"#utility.yul\":1029:1034   */\n  dup4\n    /* \"#utility.yul\":1025:1039   */\n  add\n    /* \"#utility.yul\":1021:1044   */\n  div\n    /* \"#utility.yul\":1011:1044   */\n  swap1\n  pop\n    /* \"#utility.yul\":957:1050   */\n  swap2\n  swap1\n  pop\n  jump\t// out\n    /* \"#utility.yul\":1056:1163   */\ntag_22:\n    /* \"#utility.yul\":1100:1108   */\n  0x00\n    /* \"#utility.yul\":1150:1155   */\n  dup3\n    /* \"#utility.yul\":1144:1148   */\n  dup3\n    /* \"#utility.yul\":1140:1156   */\n  shl\n    /* \"#utility.yul\":1119:1156   */\n  swap1\n  pop\n    /* \"#utility.yul\":1056:1163   */\n  swap3\n  swap2\n  pop\n  pop\n  jump\t// out\n    /* \"#utility.yul\":1169:1562   */\ntag_23:\n    /* \"#utility.yul\":1238:1244   */\n  0x00\n    /* \"#utility.yul\":1288:1289   */\n  0x08\n    /* \"#utility.yul\":1276:1286   */\n  dup4\n    /* \"#utility.yul\":1272:1290   */\n  mul\n    /* \"#utility.yul\":1311:1408   */\n  tag_48\n    /* \"#utility.yul\":1341:1407   */\n  0xffffffffffffffffffffffffffffffffffffffffffffffffffffffffffffffff\n    /* \"#utility.yul\":1330:1339   */\n  dup3\n    /* \"#utility.yul\":1311:1408   */\n  tag_22\n  jump\t// in\ntag_48:\n    /* \"#utility.yul\":1429:1468   */\n  tag_49\n    /* \"#utility.yul\":1459:1467   */\n  dup7\n    /* \"#utility.yul\":1448:1457   */\n  dup4\n    /* \"#utility.yul\":1429:1468   */\n  tag_22\n  jump\t// in\ntag_49:\n    /* \"#utility.yul\":1417:1468   */\n  swap6\n  pop\n    /* \"#utility.yul\":1501:1505   */\n  dup1\n    /* \"#utility.yul\":1497:1506   */\n  not\n    /* \"#utility.yul\":1490:1495   */\n  dup5\n    /* \"#utility.yul\":1486:1507   */\n  and\n    /* \"#utility.yul\":1477:1507   */\n  swap4\n  pop\n    /* \"#utility.yul\":1550:1554   */\n  dup1\n    /* \"#utility.yul\":1540:1548   */\n  dup7\n    /* \"#utility.yul\":1536:1555   */\n  and\n    /* \"#utility.yul\":1529:1534   */\n  dup5\n    /* \"#utility.yul\":1526:1556   */\n  or\n    /* \"#utility.yul\":1516:1556   */\n  swap3\n  pop\n    /* \"#utility.yul\":1245:1562   */\n  pop\n  pop\n    /* \"#utility.yul\":1169:1562   */\n  swap4\n  swap3\n  pop\n  pop\n  pop\n  jump\t// out\n    /* \"#utility.yul\":1568:1645   */\ntag_24:\n    /* \"#utility.yul\":1605:1612   */\n  0x00\n    /* \"#utility.yul\":1634:1639   */\n  dup2\n    /* \"#utility.yul\":1623:1639   */\n  swap1\n  pop\n    /* \"#utility.yul\":1568:1645   */\n  swap2\n  swap1\n  pop\n  jump\t// out\n    /* \"#utility.yul\":1651:1711   */\ntag_25:\n    /* \"#utility.yul\":1679:1682   */\n  0x00\n    /* \"#utility.yul\":1700:1705   */\n  dup2\n    /* \"#utility.yul\":1693:1705   */\n  swap1\n  pop\n    /* \"#utility.yul\":1651:1711   */\n  swap2\n  swap1\n  pop\n  jump\t// out\n    /* \"#utility.yul\":1717:1859   */\ntag_26:\n    /* \"#utility.yul\":1767:1776   */\n  0x00\n    /* \"#utility.yul\":1800:1853   */\n  tag_53\n    /* \"#utility.yul\":1818:1852   */\n  tag_54\n    /* \"#utility.yul\":1827:1851   */\n  tag_55\n    /* \"#utility.yul\":1845:1850   */\n  dup5\n    /* \"#utility.yul\":1827:1851   */\n  tag_24\n  jump\t// in\ntag_55:\n    /* \"#utility.yul\":1818:1852   */\n  tag_25\n  jump\t// in\ntag_54:\n    /* \"#utility.yul\":1800:1853   */\n  tag_24\n  jump\t// in\ntag_53:\n    /* \"#utility.yul\":1787:1853   */\n  swap1\n  pop\n    /* \"#utility.yul\":1717:1859   */\n  swap2\n  swap1\n  pop\n  jump\t// out\n    /* \"#utility.yul\":1865:1940   */\ntag_27:\n    /* \"#utility.yul\":1908:1911   */\n  0x00\n    /* \"#utility.yul\":1929:1934   */\n  dup2\n    /* \"#utility.yul\":1922:1934   */\n  swap1\n  pop\n    /* \"#utility.yul\":1865:1940   */\n  swap2\n  swap1\n  pop\n  jump\t// out\n    /* \"#utility.yul\":1946:2215   */\ntag_28:\n    /* \"#utility.yul\":2056:2095   */\n  tag_58\n    /* \"#utility.yul\":2087:2094   */\n  dup4\n    /* \"#utility.yul\":2056:2095   */\n  tag_26\n  jump\t// in\ntag_58:\n    /* \"#utility.yul\":2117:2208   */\n  tag_59\n    /* \"#utility.yul\":2166:2207   */\n  tag_60\n    /* \"#utility.yul\":2190:2206   */\n  dup3\n    /* \"#utility.yul\":2166:2207   */\n  tag_27\n  jump\t// in\ntag_60:\n    /* \"#utility.yul\":2158:2164   */\n  dup5\n    /* \"#utility.yul\":2151:2155   */\n  dup5\n    /* \"#utility.yul\":2145:2156   */\n  sload\n    /* \"#utility.yul\":2117:2208   */\n  tag_23\n  jump\t// in\ntag_59:\n    /* \"#utility.yul\":2111:2115   */\n  dup3\n    /* \"#utility.yul\":2104:2209   */\n  sstore\n    /* \"#utility.yul\":2022:2215   */\n  pop\n    /* \"#utility.yul\":1946:2215   */\n  pop\n  pop\n  pop\n  jump\t// out\n    /* \"#utility.yul\":2221:2294   */\ntag_29:\n    /* \"#utility.yul\":2266:2269   */\n  0x00\n    /* \"#utility.yul\":2221:2294   */\n  swap1\n  jump\t// out\n    /* \"#utility.yul\":2300:2489   */\ntag_30:\n    /* \"#utility.yul\":2377:2409   */\n  tag_63\n  tag_29\n  jump\t// in\ntag_63:\n    /* \"#utility.yul\":2418:2483   */\n  tag_64\n    /* \"#utility.yul\":2476:2482   */\n  dup2\n    /* \"#utility.yul\":2468:2474   */\n  dup5\n    /* \"#utility.yul\":2462:2466   */\n  dup5\n    /* \"#utility.yul\":2418:2483   */\n  tag_28\n  jump\t// in\ntag_64:\n    /* \"#utility.yul\":2353:2489   */\n  pop\n    /* \"#utility.yul\":2300:2489   */\n  pop\n  pop\n  jump\t// out\n    /* \"#utility.yul\":2495:2681   */\ntag_31:\n    /* \"#utility.yul\":2555:2675   */\ntag_66:\n    /* \"#utility.yul\":2572:2575   */\n  dup2\n    /* \"#utility.yul\":2565:2570   */\n  dup2\n    /* \"#utility.yul\":2562:2576   */\n  lt\n    /* \"#utility.yul\":2555:2675   */\n  iszero\n  tag_68\n  jumpi\n    /* \"#utility.yul\":2626:2665   */\n  tag_69\n    /* \"#utility.yul\":2663:2664   */\n  0x00\n    /* \"#utility.yul\":2656:2661   */\n  dup3\n    /* \"#utility.yul\":2626:2665   */\n  tag_30\n  jump\t// in\ntag_69:\n    /* \"#utility.yul\":2599:2600   */\n  0x01\n    /* \"#utility.yul\":2592:2597   */\n  dup2\n    /* \"#utility.yul\":2588:2601   */\n  add\n    /* \"#utility.yul\":2579:2601   */\n  swap1\n  pop\n    /* \"#utility.yul\":2555:2675   */\n  jump(tag_66)\ntag_68:\n    /* \"#utility.yul\":2495:2681   */\n  pop\n  pop\n  jump\t// out\n    /* \"#utility.yul\":2687:3230   */\ntag_32:\n    /* \"#utility.yul\":2788:2790   */\n  0x1f\n    /* \"#utility.yul\":2783:2786   */\n  dup3\n    /* \"#utility.yul\":2780:2791   */\n  gt\n    /* \"#utility.yul\":2777:3223   */\n  iszero\n  tag_71\n  jumpi\n    /* \"#utility.yul\":2822:2860   */\n  tag_72\n    /* \"#utility.yul\":2854:2859   */\n  dup2\n    /* \"#utility.yul\":2822:2860   */\n  tag_20\n  jump\t// in\ntag_72:\n    /* \"#utility.yul\":2906:2935   */\n  tag_73\n    /* \"#utility.yul\":2924:2934   */\n  dup5\n    /* \"#utility.yul\":2906:2935   */\n  tag_21\n  jump\t// in\ntag_73:\n    /* \"#utility.yul\":2896:2904   */\n  dup2\n    /* \"#utility.yul\":2892:2936   */\n  add\n    /* \"#utility.yul\":3089:3091   */\n  0x20\n    /* \"#utility.yul\":3077:3087   */\n  dup6\n    /* \"#utility.yul\":3074:3092   */\n  lt\n    /* \"#utility.yul\":3071:3120   */\n  iszero\n  tag_74\n  jumpi\n    /* \"#utility.yul\":3110:3118   */\n  dup2\n    /* \"#utility.yul\":3095:3118   */\n  swap1\n  pop\n    /* \"#utility.yul\":3071:3120   */\ntag_74:\n    /* \"#utility.yul\":3133:3213   */\n  tag_75\n    /* \"#utility.yul\":3189:3211   */\n  tag_76\n    /* \"#utility.yul\":3207:3210   */\n  dup6\n    /* \"#utility.yul\":3189:3211   */\n  tag_21\n  jump\t// in\ntag_76:\n    /* \"#utility.yul\":3179:3187   */\n  dup4\n    /* \"#utility.yul\":3175:3212   */\n  add\n    /* \"#utility.yul\":3162:3173   */\n  dup3\n    /* \"#utility.yul\":3133:3213   */\n  tag_31\n  jump\t// in\ntag_75:\n    /* \"#utility.yul\":2792:3223   */\n  pop\n  pop\n    /* \"#utility.yul\":2777:3223   */\ntag_71:\n    /* \"#utility.yul\":2687:3230   */\n  pop\n  pop\n  pop\n  jump\t// out\n    /* \"#utility.yul\":3236:3353   */\ntag_33:\n    /* \"#utility.yul\":3290:3298   */\n  0x00\n    /* \"#utility.yul\":3340:3345   */\n  dup3\n    /* \"#utility.yul\":3334:3338   */\n  dup3\n    /* \"#utility.yul\":3330:3346   */\n  shr\n    /* \"#utility.yul\":3309:3346   */\n  swap1\n  pop\n    /* \"#utility.yul\":3236:3353   */\n  swap3\n  swap2\n  pop\n  pop\n  jump\t// out\n    /* \"#utility.yul\":3359:3528   */\ntag_34:\n    /* \"#utility.yul\":3403:3409   */\n  0x00\n    /* \"#utility.yul\":3436:3487   */\n  tag_79\n    /* \"#utility.yul\":3484:3485   */\n  0x00\n    /* \"#utility.yul\":3480:3486   */\n  not\n    /* \"#utility.yul\":3472:3477   */\n  dup5\n    /* \"#utility.yul\":3469:3470   */\n  0x08\n    /* \"#utility.yul\":3465:3478   */\n  mul\n    /* \"#utility.yul\":3436:3487   */\n  tag_33\n  jump\t// in\ntag_79:\n    /* \"#utility.yul\":3432:3488   */\n  not\n    /* \"#utility.yul\":3517:3521   */\n  dup1\n    /* \"#utility.yul\":3511:3515   */\n  dup4\n    /* \"#utility.yul\":3507:3522   */\n  and\n    /* \"#utility.yul\":3497:3522   */\n  swap2\n  pop\n    /* \"#utility.yul\":3410:3528   */\n  pop\n    /* \"#utility.yul\":3359:3528   */\n  swap3\n  swap2\n  pop\n  pop\n  jump\t// out\n    /* \"#utility.yul\":3533:3828   */\ntag_35:\n    /* \"#utility.yul\":3609:3613   */\n  0x00\n    /* \"#utility.yul\":3755:3784   */\n  tag_81\n    /* \"#utility.yul\":3780:3783   */\n  dup4\n    /* \"#utility.yul\":3774:3778   */\n  dup4\n    /* \"#utility.yul\":3755:3784   */\n  tag_34\n  jump\t// in\ntag_81:\n    /* \"#utility.yul\":3747:3784   */\n  swap2\n  pop\n    /* \"#utility.yul\":3817:3820   */\n  dup3\n    /* \"#utility.yul\":3814:3815   */\n  0x02\n    /* \"#utility.yul\":3810:3821   */\n  mul\n    /* \"#utility.yul\":3804:3808   */\n  dup3\n    /* \"#utility.yul\":3801:3822   */\n  or\n    /* \"#utility.yul\":3793:3822   */\n  swap1\n  pop\n    /* \"#utility.yul\":3533:3828   */\n  swap3\n  swap2\n  pop\n  pop\n  jump\t// out\n    /* \"#utility.yul\":3833:5228   */\ntag_2:\n    /* \"#utility.yul\":3950:3987   */\n  tag_83\n    /* \"#utility.yul\":3983:3986   */\n  dup3\n    /* \"#utility.yul\":3950:3987   */\n  tag_16\n  jump\t// in\ntag_83:\n    /* \"#utility.yul\":4052:4070   */\n  0xffffffffffffffff\n    /* \"#utility.yul\":4044:4050   */\n  dup2\n    /* \"#utility.yul\":4041:4071   */\n  gt\n    /* \"#utility.yul\":4038:4094   */\n  iszero\n  tag_84\n  jumpi\n    /* \"#utility.yul\":4074:4092   */\n  tag_85\n  tag_17\n  jump\t// in\ntag_85:\n    /* \"#utility.yul\":4038:4094   */\ntag_84:\n    /* \"#utility.yul\":4118:4156   */\n  tag_86\n    /* \"#utility.yul\":4150:4154   */\n  dup3\n    /* \"#utility.yul\":4144:4155   */\n  sload\n    /* \"#utility.yul\":4118:4156   */\n  tag_19\n  jump\t// in\ntag_86:\n    /* \"#utility.yul\":4203:4270   */\n  tag_87\n    /* \"#utility.yul\":4263:4269   */\n  dup3\n    /* \"#utility.yul\":4255:4261   */\n  dup3\n    /* \"#utility.yul\":4249:4253   */\n  dup6\n    /* \"#utility.yul\":4203:4270   */\n  tag_32\n  jump\t// in\ntag_87:\n    /* \"#utility.yul\":4297:4298   */\n  0x00\n    /* \"#utility.yul\":4321:4325   */\n  0x20\n    /* \"#utility.yul\":4308:4325   */\n  swap1\n  pop\n    /* \"#utility.yul\":4353:4355   */\n  0x1f\n    /* \"#utility.yul\":4345:4351   */\n  dup4\n    /* \"#utility.yul\":4342:4356   */\n  gt\n    /* \"#utility.yul\":4370:4371   */\n  0x01\n    /* \"#utility.yul\":4365:4983   */\n  dup2\n  eq\n  tag_89\n  jumpi\n    /* \"#utility.yul\":5027:5028   */\n  0x00\n    /* \"#utility.yul\":5044:5050   */\n  dup5\n    /* \"#utility.yul\":5041:5118   */\n  iszero\n  tag_90\n  jumpi\n    /* \"#utility.yul\":5093:5102   */\n  dup3\n    /* \"#utility.yul\":5088:5091   */\n  dup8\n    /* \"#utility.yul\":5084:5103   */\n  add\n    /* \"#utility.yul\":5078:5104   */\n  mload\n    /* \"#utility.yul\":5069:5104   */\n  swap1\n  pop\n    /* \"#utility.yul\":5041:5118   */\ntag_90:\n    /* \"#utility.yul\":5144:5211   */\n  tag_91\n    /* \"#utility.yul\":5204:5210   */\n  dup6\n    /* \"#utility.yul\":5197:5202   */\n  dup3\n    /* \"#utility.yul\":5144:5211   */\n  tag_35\n  jump\t// in\ntag_91:\n    /* \"#utility.yul\":5138:5142   */\n  dup7\n    /* \"#utility.yul\":5131:5212   */\n  sstore\n    /* \"#utility.yul\":5000:5222   */\n  pop\n    /* \"#utility.yul\":4335:5222   */\n  jump(tag_88)\n    /* \"#utility.yul\":4365:4983   */\ntag_89:\n    /* \"#utility.yul\":4417:4421   */\n  0x1f\n    /* \"#utility.yul\":4413:4422   */\n  not\n    /* \"#utility.yul\":4405:4411   */\n  dup5\n    /* \"#utility.yul\":4401:4423   */\n  and\n    /* \"#utility.yul\":4451:4488   */\n  tag_92\n    /* \"#utility.yul\":4483:4487   */\n  dup7\n    /* \"#utility.yul\":4451:4488   */\n  tag_20\n  jump\t// in\ntag_92:\n    /* \"#utility.yul\":4510:4511   */\n  0x00\n    /* \"#utility.yul\":4524:4732   */\ntag_93:\n    /* \"#utility.yul\":4538:4545   */\n  dup3\n    /* \"#utility.yul\":4535:4536   */\n  dup2\n    /* \"#utility.yul\":4532:4546   */\n  lt\n    /* \"#utility.yul\":4524:4732   */\n  iszero\n  tag_95\n  jumpi\n    /* \"#utility.yul\":4617:4626   */\n  dup5\n    /* \"#utility.yul\":4612:4615   */\n  dup10\n    /* \"#utility.yul\":4608:4627   */\n  add\n    /* \"#utility.yul\":4602:4628   */\n  mload\n    /* \"#utility.yul\":4594:4600   */\n  dup3\n    /* \"#utility.yul\":4587:4629   */\n  sstore\n    /* \"#utility.yul\":4668:4669   */\n  0x01\n    /* \"#utility.yul\":4660:4666   */\n  dup3\n    /* \"#utility.yul\":4656:4670   */\n  add\n    /* \"#utility.yul\":4646:4670   */\n  swap2\n  pop\n    /* \"#utility.yul\":4715:4717   */\n  0x20\n    /* \"#utility.yul\":4704:4713   */\n  dup6\n    /* \"#utility.yul\":4700:4718   */\n  add\n    /* \"#utility.yul\":4687:4718   */\n  swap5\n  pop\n    /* \"#utility.yul\":4561:4565   */\n  0x20\n    /* \"#utility.yul\":4558:4559   */\n  dup2\n    /* \"#utility.yul\":4554:4566   */\n  add\n    /* \"#utility.yul\":4549:4566   */\n  swap1\n  pop\n    /* \"#utility.yul\":4524:4732   */\n  jump(tag_93)\ntag_95:\n    /* \"#utility.yul\":4760:4766   */\n  dup7\n    /* \"#utility.yul\":4751:4758   */\n  dup4\n    /* \"#utility.yul\":4748:4767   */\n  lt\n    /* \"#utility.yul\":4745:4924   */\n  iszero\n  tag_96\n  jumpi\n    /* \"#utility.yul\":4818:4827   */\n  dup5\n    /* \"#utility.yul\":4813:4816   */\n  dup10\n    /* \"#utility.yul\":4809:4828   */\n  add\n    /* \"#utility.yul\":4803:4829   */\n  mload\n    /* \"#utility.yul\":4861:4909   */\n  tag_97\n    /* \"#utility.yul\":4903:4907   */\n  0x1f\n    /* \"#utility.yul\":4895:4901   */\n  dup10\n    /* \"#utility.yul\":4891:4908   */\n  and\n    /* \"#utility.yul\":4880:4889   */\n  dup3\n    /* \"#utility.yul\":4861:4909   */\n  tag_34\n  jump\t// in\ntag_97:\n    /* \"#utility.yul\":4853:4859   */\n  dup4\n    /* \"#utility.yul\":4846:4910   */\n  sstore\n    /* \"#utility.yul\":4768:4924   */\n  pop\n    /* \"#utility.yul\":4745:4924   */\ntag_96:\n    /* \"#utility.yul\":4970:4971   */\n  0x01\n    /* \"#utility.yul\":4966:4967   */\n  0x02\n    /* \"#utility.yul\":4958:4964   */\n  dup9\n    /* \"#utility.yul\":4954:4968   */\n  mul\n    /* \"#utility.yul\":4950:4972   */\n  add\n    /* \"#utility.yul\":4944:4948   */\n  dup9\n    /* \"#utility.yul\":4937:4973   */\n  sstore\n    /* \"#utility.yul\":4372:4983   */\n  pop\n  pop\n  pop\n    /* \"#utility.yul\":4335:5222   */\ntag_88:\n  pop\n    /* \"#utility.yul\":3925:5228   */\n  pop\n  pop\n  pop\n    /* \"#utility.yul\":3833:5228   */\n  pop\n  pop\n  jump\t// out\n    /* \"SimpleStorage.sol\":74:1015  contract SimpleStorage{... */\ntag_8:\n  dataSize(sub_0)\n  dup1\n  dataOffset(sub_0)\n  0x00\n  codecopy\n  0x00\n  return\nstop\n\nsub_0: assembly {\n        /* \"SimpleStorage.sol\":74:1015  contract SimpleStorage{... */\n      mstore(0x40, 0x80)\n      callvalue\n      dup1\n      iszero\n      tag_1\n      jumpi\n      0x00\n      dup1\n      revert\n    tag_1:\n      pop\n      jumpi(tag_2, lt(calldatasize, 0x04))\n      shr(0xe0, calldataload(0x00))\n      dup1\n      0x07c00c01\n      eq\n      tag_3\n      jumpi\n      dup1\n      0x2e64cec1\n      eq\n      tag_4\n      jumpi\n      dup1\n      0x4622ab03\n      eq\n      tag_5\n      jumpi\n      dup1\n      0x81d01ed3\n      eq\n      tag_6\n      jumpi\n      dup1\n      0xd80deced\n      eq\n      tag_7\n      jumpi\n    tag_2:\n      0x00\n      dup1\n      revert\n        /* \"SimpleStorage.sol\":690:801  function addNamesToList(string memory name , int numb ) public {... */\n    tag_3:\n      tag_8\n      0x04\n      dup1\n      calldatasize\n      sub\n      dup2\n      add\n      swap1\n      tag_9\n      swap2\n      swap1\n      tag_10\n      jump\t// in\n    tag_9:\n      tag_11\n      jump\t// in\n    tag_8:\n      stop\n        /* \"SimpleStorage.sol\":933:1008  function retrieve() public view returns (int) {... */\n    tag_4:\n      tag_12\n      tag_13\n      jump\t// in\n    tag_12:\n      mload(0x40)\n      tag_14\n      swap2\n      swap1\n      tag_15\n      jump\t// in\n    tag_14:\n      mload(0x40)\n      dup1\n      swap2\n      sub\n      swap1\n      return\n        /* \"SimpleStorage.sol\":654:676  Person [] public names */\n    tag_5:\n      tag_16\n      0x04\n      dup1\n      calldatasize\n      sub\n      dup2\n      add\n      swap1\n      tag_17\n      swap2\n      swap1\n      tag_18\n      jump\t// in\n    tag_17:\n      tag_19\n      jump\t// in\n    tag_16:\n      mload(0x40)\n      tag_20\n      swap3\n      swap2\n      swap1\n      tag_21\n      jump\t// in\n    tag_20:\n      mload(0x40)\n      dup1\n      swap2\n      sub\n      swap1\n      return\n        /* \"SimpleStorage.sol\":593:645  Person public p2 =  Person({name :\"person1\",num:11}) */\n    tag_6:\n      tag_22\n      tag_23\n      jump\t// in\n    tag_22:\n      mload(0x40)\n      tag_24\n      swap3\n      swap2\n      swap1\n      tag_21\n      jump\t// in\n    tag_24:\n      mload(0x40)\n      dup1\n      swap2\n      sub\n      swap1\n      return\n        /* \"SimpleStorage.sol\":811:897  function store(int myNumber ) public {... */\n    tag_7:\n      tag_25\n      0x04\n      dup1\n      calldatasize\n      sub\n      dup2\n      add\n      swap1\n      tag_26\n      swap2\n      swap1\n      tag_27\n      jump\t// in\n    tag_26:\n      tag_28\n      jump\t// in\n    tag_25:\n      stop\n        /* \"SimpleStorage.sol\":690:801  function addNamesToList(string memory name , int numb ) public {... */\n    tag_11:\n        /* \"SimpleStorage.sol\":764:769  names */\n      0x0b\n        /* \"SimpleStorage.sol\":775:792  Person(numb,name) */\n      mload(0x40)\n      dup1\n      0x40\n      add\n      0x40\n      mstore\n      dup1\n        /* \"SimpleStorage.sol\":782:786  numb */\n      dup4\n        /* \"SimpleStorage.sol\":775:792  Person(numb,name) */\n      dup2\n      mstore\n      0x20\n      add\n        /* \"SimpleStorage.sol\":787:791  name */\n      dup5\n        /* \"SimpleStorage.sol\":775:792  Person(numb,name) */\n      dup2\n      mstore\n      pop\n        /* \"SimpleStorage.sol\":764:793  names.push(Person(numb,name)) */\n      swap1\n      dup1\n      0x01\n      dup2\n      sload\n      add\n      dup1\n      dup3\n      sstore\n      dup1\n      swap2\n      pop\n      pop\n      0x01\n      swap1\n      sub\n      swap1\n      0x00\n      mstore\n      keccak256(0x00, 0x20)\n      swap1\n      0x02\n      mul\n      add\n      0x00\n      swap1\n      swap2\n      swap1\n      swap2\n      swap1\n      swap2\n      pop\n      0x00\n      dup3\n      add\n      mload\n      dup2\n      0x00\n      add\n      sstore\n      0x20\n      dup3\n      add\n      mload\n      dup2\n      0x01\n      add\n      swap1\n      dup2\n      tag_31\n      swap2\n      swap1\n      tag_32\n      jump\t// in\n    tag_31:\n      pop\n      pop\n      pop\n        /* \"SimpleStorage.sol\":690:801  function addNamesToList(string memory name , int numb ) public {... */\n      pop\n      pop\n      jump\t// out\n        /* \"SimpleStorage.sol\":933:1008  function retrieve() public view returns (int) {... */\n    tag_13:\n        /* \"SimpleStorage.sol\":974:977  int */\n      0x00\n        /* \"SimpleStorage.sol\":997:1000  num */\n      sload(0x05)\n        /* \"SimpleStorage.sol\":990:1000  return num */\n      swap1\n      pop\n        /* \"SimpleStorage.sol\":933:1008  function retrieve() public view returns (int) {... */\n      swap1\n      jump\t// out\n        /* \"SimpleStorage.sol\":654:676  Person [] public names */\n    tag_19:\n      0x0b\n      dup2\n      dup2\n      sload\n      dup2\n      lt\n      tag_34\n      jumpi\n      0x00\n      dup1\n      revert\n    tag_34:\n      swap1\n      0x00\n      mstore\n      keccak256(0x00, 0x20)\n      swap1\n      0x02\n      mul\n      add\n      0x00\n      swap2\n      pop\n      swap1\n      pop\n      dup1\n      0x00\n      add\n      sload\n      swap1\n      dup1\n      0x01\n      add\n      dup1\n      sload\n      tag_36\n      swap1\n      tag_37\n      jump\t// in\n    tag_36:\n      dup1\n      0x1f\n      add\n      0x20\n      dup1\n      swap2\n      div\n      mul\n      0x20\n      add\n      mload(0x40)\n      swap1\n      dup2\n      add\n      0x40\n      mstore\n      dup1\n      swap3\n      swap2\n      swap1\n      dup2\n      dup2\n      mstore\n      0x20\n      add\n      dup3\n      dup1\n      sload\n      tag_38\n      swap1\n      tag_37\n      jump\t// in\n    tag_38:\n      dup1\n      iszero\n      tag_39\n      jumpi\n      dup1\n      0x1f\n      lt\n      tag_40\n      jumpi\n      0x0100\n      dup1\n      dup4\n      sload\n      div\n      mul\n      dup4\n      mstore\n      swap2\n      0x20\n      add\n      swap2\n      jump(tag_39)\n    tag_40:\n      dup3\n      add\n      swap2\n      swap1\n      0x00\n      mstore\n      keccak256(0x00, 0x20)\n      swap1\n    tag_41:\n      dup2\n      sload\n      dup2\n      mstore\n      swap1\n      0x01\n      add\n      swap1\n      0x20\n      add\n      dup1\n      dup4\n      gt\n      tag_41\n      jumpi\n      dup3\n      swap1\n      sub\n      0x1f\n      and\n      dup3\n      add\n      swap2\n    tag_39:\n      pop\n      pop\n      pop\n      pop\n      pop\n      swap1\n      pop\n      dup3\n      jump\t// out\n        /* \"SimpleStorage.sol\":593:645  Person public p2 =  Person({name :\"person1\",num:11}) */\n    tag_23:\n      0x09\n      dup1\n      0x00\n      add\n      sload\n      swap1\n      dup1\n      0x01\n      add\n      dup1\n      sload\n      tag_42\n      swap1\n      tag_37\n      jump\t// in\n    tag_42:\n      dup1\n      0x1f\n      add\n      0x20\n      dup1\n      swap2\n      div\n      mul\n      0x20\n      add\n      mload(0x40)\n      swap1\n      dup2\n      add\n      0x40\n      mstore\n      dup1\n      swap3\n      swap2\n      swap1\n      dup2\n      dup2\n      mstore\n      0x20\n      add\n      dup3\n      dup1\n      sload\n      tag_43\n      swap1\n      tag_37\n      jump\t// in\n    tag_43:\n      dup1\n      iszero\n      tag_44\n      jumpi\n      dup1\n      0x1f\n      lt\n      tag_45\n      jumpi\n      0x0100\n      dup1\n      dup4\n      sload\n      div\n      mul\n      dup4\n      mstore\n      swap2\n      0x20\n      add\n      swap2\n      jump(tag_44)\n    tag_45:\n      dup3\n      add\n      swap2\n      swap1\n      0x00\n      mstore\n      keccak256(0x00, 0x20)\n      swap1\n    tag_46:\n      dup2\n      sload\n      dup2\n      mstore\n      swap1\n      0x01\n      add\n      swap1\n      0x20\n      add\n      dup1\n      dup4\n      gt\n      tag_46\n      jumpi\n      dup3\n      swap1\n      sub\n      0x1f\n      and\n      dup3\n      add\n      swap2\n    tag_44:\n      pop\n      pop\n      pop\n      pop\n      pop\n      swap1\n      pop\n      dup3\n      jump\t// out\n        /* \"SimpleStorage.sol\":811:897  function store(int myNumber ) public {... */\n    tag_28:\n        /* \"SimpleStorage.sol\":865:873  myNumber */\n      dup1\n        /* \"SimpleStorage.sol\":859:862  num */\n      0x05\n        /* \"SimpleStorage.sol\":859:873  num = myNumber */\n      dup2\n      swap1\n      sstore\n      pop\n        /* \"SimpleStorage.sol\":884:887  num */\n      0x05\n      0x00\n        /* \"SimpleStorage.sol\":884:889  num++ */\n      dup2\n      sload\n      dup1\n      swap3\n      swap2\n      swap1\n      tag_48\n      swap1\n      tag_49\n      jump\t// in\n    tag_48:\n      swap2\n      swap1\n      pop\n      sstore\n      pop\n        /* \"SimpleStorage.sol\":811:897  function store(int myNumber ) public {... */\n      pop\n      jump\t// out\n        /* \"#utility.yul\":7:82   */\n    tag_50:\n        /* \"#utility.yul\":40:46   */\n      0x00\n        /* \"#utility.yul\":73:75   */\n      0x40\n        /* \"#utility.yul\":67:76   */\n      mload\n        /* \"#utility.yul\":57:76   */\n      swap1\n      pop\n        /* \"#utility.yul\":7:82   */\n      swap1\n      jump\t// out\n        /* \"#utility.yul\":88:205   */\n    tag_51:\n        /* \"#utility.yul\":197:198   */\n      0x00\n        /* \"#utility.yul\":194:195   */\n      dup1\n        /* \"#utility.yul\":187:199   */\n      revert\n        /* \"#utility.yul\":211:328   */\n    tag_52:\n        /* \"#utility.yul\":320:321   */\n      0x00\n        /* \"#utility.yul\":317:318   */\n      dup1\n        /* \"#utility.yul\":310:322   */\n      revert\n        /* \"#utility.yul\":334:451   */\n    tag_53:\n        /* \"#utility.yul\":443:444   */\n      0x00\n        /* \"#utility.yul\":440:441   */\n      dup1\n        /* \"#utility.yul\":433:445   */\n      revert\n        /* \"#utility.yul\":457:574   */\n    tag_54:\n        /* \"#utility.yul\":566:567   */\n      0x00\n        /* \"#utility.yul\":563:564   */\n      dup1\n        /* \"#utility.yul\":556:568   */\n      revert\n        /* \"#utility.yul\":580:682   */\n    tag_55:\n        /* \"#utility.yul\":621:627   */\n      0x00\n        /* \"#utility.yul\":672:674   */\n      0x1f\n        /* \"#utility.yul\":668:675   */\n      not\n        /* \"#utility.yul\":663:665   */\n      0x1f\n        /* \"#utility.yul\":656:661   */\n      dup4\n        /* \"#utility.yul\":652:666   */\n      add\n        /* \"#utility.yul\":648:676   */\n      and\n        /* \"#utility.yul\":638:676   */\n      swap1\n      pop\n        /* \"#utility.yul\":580:682   */\n      swap2\n      swap1\n      pop\n      jump\t// out\n        /* \"#utility.yul\":688:868   */\n    tag_56:\n        /* \"#utility.yul\":736:813   */\n      0x4e487b7100000000000000000000000000000000000000000000000000000000\n        /* \"#utility.yul\":733:734   */\n      0x00\n        /* \"#utility.yul\":726:814   */\n      mstore\n        /* \"#utility.yul\":833:837   */\n      0x41\n        /* \"#utility.yul\":830:831   */\n      0x04\n        /* \"#utility.yul\":823:838   */\n      mstore\n        /* \"#utility.yul\":857:861   */\n      0x24\n        /* \"#utility.yul\":854:855   */\n      0x00\n        /* \"#utility.yul\":847:862   */\n      revert\n        /* \"#utility.yul\":874:1155   */\n    tag_57:\n        /* \"#utility.yul\":957:984   */\n      tag_100\n        /* \"#utility.yul\":979:983   */\n      dup3\n        /* \"#utility.yul\":957:984   */\n      tag_55\n      jump\t// in\n    tag_100:\n        /* \"#utility.yul\":949:955   */\n      dup2\n        /* \"#utility.yul\":945:985   */\n      add\n        /* \"#utility.yul\":1087:1093   */\n      dup2\n        /* \"#utility.yul\":1075:1085   */\n      dup2\n        /* \"#utility.yul\":1072:1094   */\n      lt\n        /* \"#utility.yul\":1051:1069   */\n      0xffffffffffffffff\n        /* \"#utility.yul\":1039:1049   */\n      dup3\n        /* \"#utility.yul\":1036:1070   */\n      gt\n        /* \"#utility.yul\":1033:1095   */\n      or\n        /* \"#utility.yul\":1030:1118   */\n      iszero\n      tag_101\n      jumpi\n        /* \"#utility.yul\":1098:1116   */\n      tag_102\n      tag_56\n      jump\t// in\n    tag_102:\n        /* \"#utility.yul\":1030:1118   */\n    tag_101:\n        /* \"#utility.yul\":1138:1148   */\n      dup1\n        /* \"#utility.yul\":1134:1136   */\n      0x40\n        /* \"#utility.yul\":1127:1149   */\n      mstore\n        /* \"#utility.yul\":917:1155   */\n      pop\n        /* \"#utility.yul\":874:1155   */\n      pop\n      pop\n      jump\t// out\n        /* \"#utility.yul\":1161:1290   */\n    tag_58:\n        /* \"#utility.yul\":1195:1201   */\n      0x00\n        /* \"#utility.yul\":1222:1242   */\n      tag_104\n      tag_50\n      jump\t// in\n    tag_104:\n        /* \"#utility.yul\":1212:1242   */\n      swap1\n      pop\n        /* \"#utility.yul\":1251:1284   */\n      tag_105\n        /* \"#utility.yul\":1279:1283   */\n      dup3\n        /* \"#utility.yul\":1271:1277   */\n      dup3\n        /* \"#utility.yul\":1251:1284   */\n      tag_57\n      jump\t// in\n    tag_105:\n        /* \"#utility.yul\":1161:1290   */\n      swap2\n      swap1\n      pop\n      jump\t// out\n        /* \"#utility.yul\":1296:1604   */\n    tag_59:\n        /* \"#utility.yul\":1358:1362   */\n      0x00\n        /* \"#utility.yul\":1448:1466   */\n      0xffffffffffffffff\n        /* \"#utility.yul\":1440:1446   */\n      dup3\n        /* \"#utility.yul\":1437:1467   */\n      gt\n        /* \"#utility.yul\":1434:1490   */\n      iszero\n      tag_107\n      jumpi\n        /* \"#utility.yul\":1470:1488   */\n      tag_108\n      tag_56\n      jump\t// in\n    tag_108:\n        /* \"#utility.yul\":1434:1490   */\n    tag_107:\n        /* \"#utility.yul\":1508:1537   */\n      tag_109\n        /* \"#utility.yul\":1530:1536   */\n      dup3\n        /* \"#utility.yul\":1508:1537   */\n      tag_55\n      jump\t// in\n    tag_109:\n        /* \"#utility.yul\":1500:1537   */\n      swap1\n      pop\n        /* \"#utility.yul\":1592:1596   */\n      0x20\n        /* \"#utility.yul\":1586:1590   */\n      dup2\n        /* \"#utility.yul\":1582:1597   */\n      add\n        /* \"#utility.yul\":1574:1597   */\n      swap1\n      pop\n        /* \"#utility.yul\":1296:1604   */\n      swap2\n      swap1\n      pop\n      jump\t// out\n        /* \"#utility.yul\":1610:1756   */\n    tag_60:\n        /* \"#utility.yul\":1707:1713   */\n      dup3\n        /* \"#utility.yul\":1702:1705   */\n      dup2\n        /* \"#utility.yul\":1697:1700   */\n      dup4\n        /* \"#utility.yul\":1684:1714   */\n      calldatacopy\n        /* \"#utility.yul\":1748:1749   */\n      0x00\n        /* \"#utility.yul\":1739:1745   */\n      dup4\n        /* \"#utility.yul\":1734:1737   */\n      dup4\n        /* \"#utility.yul\":1730:1746   */\n      add\n        /* \"#utility.yul\":1723:1750   */\n      mstore\n        /* \"#utility.yul\":1610:1756   */\n      pop\n      pop\n      pop\n      jump\t// out\n        /* \"#utility.yul\":1762:2187   */\n    tag_61:\n        /* \"#utility.yul\":1840:1845   */\n      0x00\n        /* \"#utility.yul\":1865:1931   */\n      tag_112\n        /* \"#utility.yul\":1881:1930   */\n      tag_113\n        /* \"#utility.yul\":1923:1929   */\n      dup5\n        /* \"#utility.yul\":1881:1930   */\n      tag_59\n      jump\t// in\n    tag_113:\n        /* \"#utility.yul\":1865:1931   */\n      tag_58\n      jump\t// in\n    tag_112:\n        /* \"#utility.yul\":1856:1931   */\n      swap1\n      pop\n        /* \"#utility.yul\":1954:1960   */\n      dup3\n        /* \"#utility.yul\":1947:1952   */\n      dup2\n        /* \"#utility.yul\":1940:1961   */\n      mstore\n        /* \"#utility.yul\":1992:1996   */\n      0x20\n        /* \"#utility.yul\":1985:1990   */\n      dup2\n        /* \"#utility.yul\":1981:1997   */\n      add\n        /* \"#utility.yul\":2030:2033   */\n      dup5\n        /* \"#utility.yul\":2021:2027   */\n      dup5\n        /* \"#utility.yul\":2016:2019   */\n      dup5\n        /* \"#utility.yul\":2012:2028   */\n      add\n        /* \"#utility.yul\":2009:2034   */\n      gt\n        /* \"#utility.yul\":2006:2118   */\n      iszero\n      tag_114\n      jumpi\n        /* \"#utility.yul\":2037:2116   */\n      tag_115\n      tag_54\n      jump\t// in\n    tag_115:\n        /* \"#utility.yul\":2006:2118   */\n    tag_114:\n        /* \"#utility.yul\":2127:2181   */\n      tag_116\n        /* \"#utility.yul\":2174:2180   */\n      dup5\n        /* \"#utility.yul\":2169:2172   */\n      dup3\n        /* \"#utility.yul\":2164:2167   */\n      dup6\n        /* \"#utility.yul\":2127:2181   */\n      tag_60\n      jump\t// in\n    tag_116:\n        /* \"#utility.yul\":1846:2187   */\n      pop\n        /* \"#utility.yul\":1762:2187   */\n      swap4\n      swap3\n      pop\n      pop\n      pop\n      jump\t// out\n        /* \"#utility.yul\":2207:2547   */\n    tag_62:\n        /* \"#utility.yul\":2263:2268   */\n      0x00\n        /* \"#utility.yul\":2312:2315   */\n      dup3\n        /* \"#utility.yul\":2305:2309   */\n      0x1f\n        /* \"#utility.yul\":2297:2303   */\n      dup4\n        /* \"#utility.yul\":2293:2310   */\n      add\n        /* \"#utility.yul\":2289:2316   */\n      slt\n        /* \"#utility.yul\":2279:2401   */\n      tag_118\n      jumpi\n        /* \"#utility.yul\":2320:2399   */\n      tag_119\n      tag_53\n      jump\t// in\n    tag_119:\n        /* \"#utility.yul\":2279:2401   */\n    tag_118:\n        /* \"#utility.yul\":2437:2443   */\n      dup2\n        /* \"#utility.yul\":2424:2444   */\n      calldataload\n        /* \"#utility.yul\":2462:2541   */\n      tag_120\n        /* \"#utility.yul\":2537:2540   */\n      dup5\n        /* \"#utility.yul\":2529:2535   */\n      dup3\n        /* \"#utility.yul\":2522:2526   */\n      0x20\n        /* \"#utility.yul\":2514:2520   */\n      dup7\n        /* \"#utility.yul\":2510:2527   */\n      add\n        /* \"#utility.yul\":2462:2541   */\n      tag_61\n      jump\t// in\n    tag_120:\n        /* \"#utility.yul\":2453:2541   */\n      swap2\n      pop\n        /* \"#utility.yul\":2269:2547   */\n      pop\n        /* \"#utility.yul\":2207:2547   */\n      swap3\n      swap2\n      pop\n      pop\n      jump\t// out\n        /* \"#utility.yul\":2553:2629   */\n    tag_63:\n        /* \"#utility.yul\":2589:2596   */\n      0x00\n        /* \"#utility.yul\":2618:2623   */\n      dup2\n        /* \"#utility.yul\":2607:2623   */\n      swap1\n      pop\n        /* \"#utility.yul\":2553:2629   */\n      swap2\n      swap1\n      pop\n      jump\t// out\n        /* \"#utility.yul\":2635:2755   */\n    tag_64:\n        /* \"#utility.yul\":2707:2730   */\n      tag_123\n        /* \"#utility.yul\":2724:2729   */\n      dup2\n        /* \"#utility.yul\":2707:2730   */\n      tag_63\n      jump\t// in\n    tag_123:\n        /* \"#utility.yul\":2700:2705   */\n      dup2\n        /* \"#utility.yul\":2697:2731   */\n      eq\n        /* \"#utility.yul\":2687:2749   */\n      tag_124\n      jumpi\n        /* \"#utility.yul\":2745:2746   */\n      0x00\n        /* \"#utility.yul\":2742:2743   */\n      dup1\n        /* \"#utility.yul\":2735:2747   */\n      revert\n        /* \"#utility.yul\":2687:2749   */\n    tag_124:\n        /* \"#utility.yul\":2635:2755   */\n      pop\n      jump\t// out\n        /* \"#utility.yul\":2761:2898   */\n    tag_65:\n        /* \"#utility.yul\":2806:2811   */\n      0x00\n        /* \"#utility.yul\":2844:2850   */\n      dup2\n        /* \"#utility.yul\":2831:2851   */\n      calldataload\n        /* \"#utility.yul\":2822:2851   */\n      swap1\n      pop\n        /* \"#utility.yul\":2860:2892   */\n      tag_126\n        /* \"#utility.yul\":2886:2891   */\n      dup2\n        /* \"#utility.yul\":2860:2892   */\n      tag_64\n      jump\t// in\n    tag_126:\n        /* \"#utility.yul\":2761:2898   */\n      swap3\n      swap2\n      pop\n      pop\n      jump\t// out\n        /* \"#utility.yul\":2904:3556   */\n    tag_10:\n        /* \"#utility.yul\":2981:2987   */\n      0x00\n        /* \"#utility.yul\":2989:2995   */\n      dup1\n        /* \"#utility.yul\":3038:3040   */\n      0x40\n        /* \"#utility.yul\":3026:3035   */\n      dup4\n        /* \"#utility.yul\":3017:3024   */\n      dup6\n        /* \"#utility.yul\":3013:3036   */\n      sub\n        /* \"#utility.yul\":3009:3041   */\n      slt\n        /* \"#utility.yul\":3006:3125   */\n      iszero\n      tag_128\n      jumpi\n        /* \"#utility.yul\":3044:3123   */\n      tag_129\n      tag_51\n      jump\t// in\n    tag_129:\n        /* \"#utility.yul\":3006:3125   */\n    tag_128:\n        /* \"#utility.yul\":3192:3193   */\n      0x00\n        /* \"#utility.yul\":3181:3190   */\n      dup4\n        /* \"#utility.yul\":3177:3194   */\n      add\n        /* \"#utility.yul\":3164:3195   */\n      calldataload\n        /* \"#utility.yul\":3222:3240   */\n      0xffffffffffffffff\n        /* \"#utility.yul\":3214:3220   */\n      dup2\n        /* \"#utility.yul\":3211:3241   */\n      gt\n        /* \"#utility.yul\":3208:3325   */\n      iszero\n      tag_130\n      jumpi\n        /* \"#utility.yul\":3244:3323   */\n      tag_131\n      tag_52\n      jump\t// in\n    tag_131:\n        /* \"#utility.yul\":3208:3325   */\n    tag_130:\n        /* \"#utility.yul\":3349:3412   */\n      tag_132\n        /* \"#utility.yul\":3404:3411   */\n      dup6\n        /* \"#utility.yul\":3395:3401   */\n      dup3\n        /* \"#utility.yul\":3384:3393   */\n      dup7\n        /* \"#utility.yul\":3380:3402   */\n      add\n        /* \"#utility.yul\":3349:3412   */\n      tag_62\n      jump\t// in\n    tag_132:\n        /* \"#utility.yul\":3339:3412   */\n      swap3\n      pop\n        /* \"#utility.yul\":3135:3422   */\n      pop\n        /* \"#utility.yul\":3461:3463   */\n      0x20\n        /* \"#utility.yul\":3487:3539   */\n      tag_133\n        /* \"#utility.yul\":3531:3538   */\n      dup6\n        /* \"#utility.yul\":3522:3528   */\n      dup3\n        /* \"#utility.yul\":3511:3520   */\n      dup7\n        /* \"#utility.yul\":3507:3529   */\n      add\n        /* \"#utility.yul\":3487:3539   */\n      tag_65\n      jump\t// in\n    tag_133:\n        /* \"#utility.yul\":3477:3539   */\n      swap2\n      pop\n        /* \"#utility.yul\":3432:3549   */\n      pop\n        /* \"#utility.yul\":2904:3556   */\n      swap3\n      pop\n      swap3\n      swap1\n      pop\n      jump\t// out\n        /* \"#utility.yul\":3562:3677   */\n    tag_66:\n        /* \"#utility.yul\":3647:3670   */\n      tag_135\n        /* \"#utility.yul\":3664:3669   */\n      dup2\n        /* \"#utility.yul\":3647:3670   */\n      tag_63\n      jump\t// in\n    tag_135:\n        /* \"#utility.yul\":3642:3645   */\n      dup3\n        /* \"#utility.yul\":3635:3671   */\n      mstore\n        /* \"#utility.yul\":3562:3677   */\n      pop\n      pop\n      jump\t// out\n        /* \"#utility.yul\":3683:3901   */\n    tag_15:\n        /* \"#utility.yul\":3774:3778   */\n      0x00\n        /* \"#utility.yul\":3812:3814   */\n      0x20\n        /* \"#utility.yul\":3801:3810   */\n      dup3\n        /* \"#utility.yul\":3797:3815   */\n      add\n        /* \"#utility.yul\":3789:3815   */\n      swap1\n      pop\n        /* \"#utility.yul\":3825:3894   */\n      tag_137\n        /* \"#utility.yul\":3891:3892   */\n      0x00\n        /* \"#utility.yul\":3880:3889   */\n      dup4\n        /* \"#utility.yul\":3876:3893   */\n      add\n        /* \"#utility.yul\":3867:3873   */\n      dup5\n        /* \"#utility.yul\":3825:3894   */\n      tag_66\n      jump\t// in\n    tag_137:\n        /* \"#utility.yul\":3683:3901   */\n      swap3\n      swap2\n      pop\n      pop\n      jump\t// out\n        /* \"#utility.yul\":3907:3984   */\n    tag_67:\n        /* \"#utility.yul\":3944:3951   */\n      0x00\n        /* \"#utility.yul\":3973:3978   */\n      dup2\n        /* \"#utility.yul\":3962:3978   */\n      swap1\n      pop\n        /* \"#utility.yul\":3907:3984   */\n      swap2\n      swap1\n      pop\n      jump\t// out\n        /* \"#utility.yul\":3990:4112   */\n    tag_68:\n        /* \"#utility.yul\":4063:4087   */\n      tag_140\n        /* \"#utility.yul\":4081:4086   */\n      dup2\n        /* \"#utility.yul\":4063:4087   */\n      tag_67\n      jump\t// in\n    tag_140:\n        /* \"#utility.yul\":4056:4061   */\n      dup2\n        /* \"#utility.yul\":4053:4088   */\n      eq\n        /* \"#utility.yul\":4043:4106   */\n      tag_141\n      jumpi\n        /* \"#utility.yul\":4102:4103   */\n      0x00\n        /* \"#utility.yul\":4099:4100   */\n      dup1\n        /* \"#utility.yul\":4092:4104   */\n      revert\n        /* \"#utility.yul\":4043:4106   */\n    tag_141:\n        /* \"#utility.yul\":3990:4112   */\n      pop\n      jump\t// out\n        /* \"#utility.yul\":4118:4257   */\n    tag_69:\n        /* \"#utility.yul\":4164:4169   */\n      0x00\n        /* \"#utility.yul\":4202:4208   */\n      dup2\n        /* \"#utility.yul\":4189:4209   */\n      calldataload\n        /* \"#utility.yul\":4180:4209   */\n      swap1\n      pop\n        /* \"#utility.yul\":4218:4251   */\n      tag_143\n        /* \"#utility.yul\":4245:4250   */\n      dup2\n        /* \"#utility.yul\":4218:4251   */\n      tag_68\n      jump\t// in\n    tag_143:\n        /* \"#utility.yul\":4118:4257   */\n      swap3\n      swap2\n      pop\n      pop\n      jump\t// out\n        /* \"#utility.yul\":4263:4592   */\n    tag_18:\n        /* \"#utility.yul\":4322:4328   */\n      0x00\n        /* \"#utility.yul\":4371:4373   */\n      0x20\n        /* \"#utility.yul\":4359:4368   */\n      dup3\n        /* \"#utility.yul\":4350:4357   */\n      dup5\n        /* \"#utility.yul\":4346:4369   */\n      sub\n        /* \"#utility.yul\":4342:4374   */\n      slt\n        /* \"#utility.yul\":4339:4458   */\n      iszero\n      tag_145\n      jumpi\n        /* \"#utility.yul\":4377:4456   */\n      tag_146\n      tag_51\n      jump\t// in\n    tag_146:\n        /* \"#utility.yul\":4339:4458   */\n    tag_145:\n        /* \"#utility.yul\":4497:4498   */\n      0x00\n        /* \"#utility.yul\":4522:4575   */\n      tag_147\n        /* \"#utility.yul\":4567:4574   */\n      dup5\n        /* \"#utility.yul\":4558:4564   */\n      dup3\n        /* \"#utility.yul\":4547:4556   */\n      dup6\n        /* \"#utility.yul\":4543:4565   */\n      add\n        /* \"#utility.yul\":4522:4575   */\n      tag_69\n      jump\t// in\n    tag_147:\n        /* \"#utility.yul\":4512:4575   */\n      swap2\n      pop\n        /* \"#utility.yul\":4468:4585   */\n      pop\n        /* \"#utility.yul\":4263:4592   */\n      swap3\n      swap2\n      pop\n      pop\n      jump\t// out\n        /* \"#utility.yul\":4598:4697   */\n    tag_70:\n        /* \"#utility.yul\":4650:4656   */\n      0x00\n        /* \"#utility.yul\":4684:4689   */\n      dup2\n        /* \"#utility.yul\":4678:4690   */\n      mload\n        /* \"#utility.yul\":4668:4690   */\n      swap1\n      pop\n        /* \"#utility.yul\":4598:4697   */\n      swap2\n      swap1\n      pop\n      jump\t// out\n        /* \"#utility.yul\":4703:4872   */\n    tag_71:\n        /* \"#utility.yul\":4787:4798   */\n      0x00\n        /* \"#utility.yul\":4821:4827   */\n      dup3\n        /* \"#utility.yul\":4816:4819   */\n      dup3\n        /* \"#utility.yul\":4809:4828   */\n      mstore\n        /* \"#utility.yul\":4861:4865   */\n      0x20\n        /* \"#utility.yul\":4856:4859   */\n      dup3\n        /* \"#utility.yul\":4852:4866   */\n      add\n        /* \"#utility.yul\":4837:4866   */\n      swap1\n      pop\n        /* \"#utility.yul\":4703:4872   */\n      swap3\n      swap2\n      pop\n      pop\n      jump\t// out\n        /* \"#utility.yul\":4878:5124   */\n    tag_72:\n        /* \"#utility.yul\":4959:4960   */\n      0x00\n        /* \"#utility.yul\":4969:5082   */\n    tag_151:\n        /* \"#utility.yul\":4983:4989   */\n      dup4\n        /* \"#utility.yul\":4980:4981   */\n      dup2\n        /* \"#utility.yul\":4977:4990   */\n      lt\n        /* \"#utility.yul\":4969:5082   */\n      iszero\n      tag_153\n      jumpi\n        /* \"#utility.yul\":5068:5069   */\n      dup1\n        /* \"#utility.yul\":5063:5066   */\n      dup3\n        /* \"#utility.yul\":5059:5070   */\n      add\n        /* \"#utility.yul\":5053:5071   */\n      mload\n        /* \"#utility.yul\":5049:5050   */\n      dup2\n        /* \"#utility.yul\":5044:5047   */\n      dup5\n        /* \"#utility.yul\":5040:5051   */\n      add\n        /* \"#utility.yul\":5033:5072   */\n      mstore\n        /* \"#utility.yul\":5005:5007   */\n      0x20\n        /* \"#utility.yul\":5002:5003   */\n      dup2\n        /* \"#utility.yul\":4998:5008   */\n      add\n        /* \"#utility.yul\":4993:5008   */\n      swap1\n      pop\n        /* \"#utility.yul\":4969:5082   */\n      jump(tag_151)\n    tag_153:\n        /* \"#utility.yul\":5116:5117   */\n      0x00\n        /* \"#utility.yul\":5107:5113   */\n      dup5\n        /* \"#utility.yul\":5102:5105   */\n      dup5\n        /* \"#utility.yul\":5098:5114   */\n      add\n        /* \"#utility.yul\":5091:5118   */\n      mstore\n        /* \"#utility.yul\":4940:5124   */\n      pop\n        /* \"#utility.yul\":4878:5124   */\n      pop\n      pop\n      pop\n      jump\t// out\n        /* \"#utility.yul\":5130:5507   */\n    tag_73:\n        /* \"#utility.yul\":5218:5221   */\n      0x00\n        /* \"#utility.yul\":5246:5285   */\n      tag_155\n        /* \"#utility.yul\":5279:5284   */\n      dup3\n        /* \"#utility.yul\":5246:5285   */\n      tag_70\n      jump\t// in\n    tag_155:\n        /* \"#utility.yul\":5301:5372   */\n      tag_156\n        /* \"#utility.yul\":5365:5371   */\n      dup2\n        /* \"#utility.yul\":5360:5363   */\n      dup6\n        /* \"#utility.yul\":5301:5372   */\n      tag_71\n      jump\t// in\n    tag_156:\n        /* \"#utility.yul\":5294:5372   */\n      swap4\n      pop\n        /* \"#utility.yul\":5381:5446   */\n      tag_157\n        /* \"#utility.yul\":5439:5445   */\n      dup2\n        /* \"#utility.yul\":5434:5437   */\n      dup6\n        /* \"#utility.yul\":5427:5431   */\n      0x20\n        /* \"#utility.yul\":5420:5425   */\n      dup7\n        /* \"#utility.yul\":5416:5432   */\n      add\n        /* \"#utility.yul\":5381:5446   */\n      tag_72\n      jump\t// in\n    tag_157:\n        /* \"#utility.yul\":5471:5500   */\n      tag_158\n        /* \"#utility.yul\":5493:5499   */\n      dup2\n        /* \"#utility.yul\":5471:5500   */\n      tag_55\n      jump\t// in\n    tag_158:\n        /* \"#utility.yul\":5466:5469   */\n      dup5\n        /* \"#utility.yul\":5462:5501   */\n      add\n        /* \"#utility.yul\":5455:5501   */\n      swap2\n      pop\n        /* \"#utility.yul\":5222:5507   */\n      pop\n        /* \"#utility.yul\":5130:5507   */\n      swap3\n      swap2\n      pop\n      pop\n      jump\t// out\n        /* \"#utility.yul\":5513:5932   */\n    tag_21:\n        /* \"#utility.yul\":5652:5656   */\n      0x00\n        /* \"#utility.yul\":5690:5692   */\n      0x40\n        /* \"#utility.yul\":5679:5688   */\n      dup3\n        /* \"#utility.yul\":5675:5693   */\n      add\n        /* \"#utility.yul\":5667:5693   */\n      swap1\n      pop\n        /* \"#utility.yul\":5703:5772   */\n      tag_160\n        /* \"#utility.yul\":5769:5770   */\n      0x00\n        /* \"#utility.yul\":5758:5767   */\n      dup4\n        /* \"#utility.yul\":5754:5771   */\n      add\n        /* \"#utility.yul\":5745:5751   */\n      dup6\n        /* \"#utility.yul\":5703:5772   */\n      tag_66\n      jump\t// in\n    tag_160:\n        /* \"#utility.yul\":5819:5828   */\n      dup2\n        /* \"#utility.yul\":5813:5817   */\n      dup2\n        /* \"#utility.yul\":5809:5829   */\n      sub\n        /* \"#utility.yul\":5804:5806   */\n      0x20\n        /* \"#utility.yul\":5793:5802   */\n      dup4\n        /* \"#utility.yul\":5789:5807   */\n      add\n        /* \"#utility.yul\":5782:5830   */\n      mstore\n        /* \"#utility.yul\":5847:5925   */\n      tag_161\n        /* \"#utility.yul\":5920:5924   */\n      dup2\n        /* \"#utility.yul\":5911:5917   */\n      dup5\n        /* \"#utility.yul\":5847:5925   */\n      tag_73\n      jump\t// in\n    tag_161:\n        /* \"#utility.yul\":5839:5925   */\n      swap1\n      pop\n        /* \"#utility.yul\":5513:5932   */\n      swap4\n      swap3\n      pop\n      pop\n      pop\n      jump\t// out\n        /* \"#utility.yul\":5938:6265   */\n    tag_27:\n        /* \"#utility.yul\":5996:6002   */\n      0x00\n        /* \"#utility.yul\":6045:6047   */\n      0x20\n        /* \"#utility.yul\":6033:6042   */\n      dup3\n        /* \"#utility.yul\":6024:6031   */\n      dup5\n        /* \"#utility.yul\":6020:6043   */\n      sub\n        /* \"#utility.yul\":6016:6048   */\n      slt\n        /* \"#utility.yul\":6013:6132   */\n      iszero\n      tag_163\n      jumpi\n        /* \"#utility.yul\":6051:6130   */\n      tag_164\n      tag_51\n      jump\t// in\n    tag_164:\n        /* \"#utility.yul\":6013:6132   */\n    tag_163:\n        /* \"#utility.yul\":6171:6172   */\n      0x00\n        /* \"#utility.yul\":6196:6248   */\n      tag_165\n        /* \"#utility.yul\":6240:6247   */\n      dup5\n        /* \"#utility.yul\":6231:6237   */\n      dup3\n        /* \"#utility.yul\":6220:6229   */\n      dup6\n        /* \"#utility.yul\":6216:6238   */\n      add\n        /* \"#utility.yul\":6196:6248   */\n      tag_65\n      jump\t// in\n    tag_165:\n        /* \"#utility.yul\":6186:6248   */\n      swap2\n      pop\n        /* \"#utility.yul\":6142:6258   */\n      pop\n        /* \"#utility.yul\":5938:6265   */\n      swap3\n      swap2\n      pop\n      pop\n      jump\t// out\n        /* \"#utility.yul\":6271:6451   */\n    tag_74:\n        /* \"#utility.yul\":6319:6396   */\n      0x4e487b7100000000000000000000000000000000000000000000000000000000\n        /* \"#utility.yul\":6316:6317   */\n      0x00\n        /* \"#utility.yul\":6309:6397   */\n      mstore\n        /* \"#utility.yul\":6416:6420   */\n      0x22\n        /* \"#utility.yul\":6413:6414   */\n      0x04\n        /* \"#utility.yul\":6406:6421   */\n      mstore\n        /* \"#utility.yul\":6440:6444   */\n      0x24\n        /* \"#utility.yul\":6437:6438   */\n      0x00\n        /* \"#utility.yul\":6430:6445   */\n      revert\n        /* \"#utility.yul\":6457:6777   */\n    tag_37:\n        /* \"#utility.yul\":6501:6507   */\n      0x00\n        /* \"#utility.yul\":6538:6539   */\n      0x02\n        /* \"#utility.yul\":6532:6536   */\n      dup3\n        /* \"#utility.yul\":6528:6540   */\n      div\n        /* \"#utility.yul\":6518:6540   */\n      swap1\n      pop\n        /* \"#utility.yul\":6585:6586   */\n      0x01\n        /* \"#utility.yul\":6579:6583   */\n      dup3\n        /* \"#utility.yul\":6575:6587   */\n      and\n        /* \"#utility.yul\":6606:6624   */\n      dup1\n        /* \"#utility.yul\":6596:6677   */\n      tag_168\n      jumpi\n        /* \"#utility.yul\":6662:6666   */\n      0x7f\n        /* \"#utility.yul\":6654:6660   */\n      dup3\n        /* \"#utility.yul\":6650:6667   */\n      and\n        /* \"#utility.yul\":6640:6667   */\n      swap2\n      pop\n        /* \"#utility.yul\":6596:6677   */\n    tag_168:\n        /* \"#utility.yul\":6724:6726   */\n      0x20\n        /* \"#utility.yul\":6716:6722   */\n      dup3\n        /* \"#utility.yul\":6713:6727   */\n      lt\n        /* \"#utility.yul\":6693:6711   */\n      dup2\n        /* \"#utility.yul\":6690:6728   */\n      sub\n        /* \"#utility.yul\":6687:6771   */\n      tag_169\n      jumpi\n        /* \"#utility.yul\":6743:6761   */\n      tag_170\n      tag_74\n      jump\t// in\n    tag_170:\n        /* \"#utility.yul\":6687:6771   */\n    tag_169:\n        /* \"#utility.yul\":6508:6777   */\n      pop\n        /* \"#utility.yul\":6457:6777   */\n      swap2\n      swap1\n      pop\n      jump\t// out\n        /* \"#utility.yul\":6783:6924   */\n    tag_75:\n        /* \"#utility.yul\":6832:6836   */\n      0x00\n        /* \"#utility.yul\":6855:6858   */\n      dup2\n        /* \"#utility.yul\":6847:6858   */\n      swap1\n      pop\n        /* \"#utility.yul\":6878:6881   */\n      dup2\n        /* \"#utility.yul\":6875:6876   */\n      0x00\n        /* \"#utility.yul\":6868:6882   */\n      mstore\n        /* \"#utility.yul\":6912:6916   */\n      0x20\n        /* \"#utility.yul\":6909:6910   */\n      0x00\n        /* \"#utility.yul\":6899:6917   */\n      keccak256\n        /* \"#utility.yul\":6891:6917   */\n      swap1\n      pop\n        /* \"#utility.yul\":6783:6924   */\n      swap2\n      swap1\n      pop\n      jump\t// out\n        /* \"#utility.yul\":6930:7023   */\n    tag_76:\n        /* \"#utility.yul\":6967:6973   */\n      0x00\n        /* \"#utility.yul\":7014:7016   */\n      0x20\n        /* \"#utility.yul\":7009:7011   */\n      0x1f\n        /* \"#utility.yul\":7002:7007   */\n      dup4\n        /* \"#utility.yul\":6998:7012   */\n      add\n        /* \"#utility.yul\":6994:7017   */\n      div\n        /* \"#utility.yul\":6984:7017   */\n      swap1\n      pop\n        /* \"#utility.yul\":6930:7023   */\n      swap2\n      swap1\n      pop\n      jump\t// out\n        /* \"#utility.yul\":7029:7136   */\n    tag_77:\n        /* \"#utility.yul\":7073:7081   */\n      0x00\n        /* \"#utility.yul\":7123:7128   */\n      dup3\n        /* \"#utility.yul\":7117:7121   */\n      dup3\n        /* \"#utility.yul\":7113:7129   */\n      shl\n        /* \"#utility.yul\":7092:7129   */\n      swap1\n      pop\n        /* \"#utility.yul\":7029:7136   */\n      swap3\n      swap2\n      pop\n      pop\n      jump\t// out\n        /* \"#utility.yul\":7142:7535   */\n    tag_78:\n        /* \"#utility.yul\":7211:7217   */\n      0x00\n        /* \"#utility.yul\":7261:7262   */\n      0x08\n        /* \"#utility.yul\":7249:7259   */\n      dup4\n        /* \"#utility.yul\":7245:7263   */\n      mul\n        /* \"#utility.yul\":7284:7381   */\n      tag_175\n        /* \"#utility.yul\":7314:7380   */\n      0xffffffffffffffffffffffffffffffffffffffffffffffffffffffffffffffff\n        /* \"#utility.yul\":7303:7312   */\n      dup3\n        /* \"#utility.yul\":7284:7381   */\n      tag_77\n      jump\t// in\n    tag_175:\n        /* \"#utility.yul\":7402:7441   */\n      tag_176\n        /* \"#utility.yul\":7432:7440   */\n      dup7\n        /* \"#utility.yul\":7421:7430   */\n      dup4\n        /* \"#utility.yul\":7402:7441   */\n      tag_77\n      jump\t// in\n    tag_176:\n        /* \"#utility.yul\":7390:7441   */\n      swap6\n      pop\n        /* \"#utility.yul\":7474:7478   */\n      dup1\n        /* \"#utility.yul\":7470:7479   */\n      not\n        /* \"#utility.yul\":7463:7468   */\n      dup5\n        /* \"#utility.yul\":7459:7480   */\n      and\n        /* \"#utility.yul\":7450:7480   */\n      swap4\n      pop\n        /* \"#utility.yul\":7523:7527   */\n      dup1\n        /* \"#utility.yul\":7513:7521   */\n      dup7\n        /* \"#utility.yul\":7509:7528   */\n      and\n        /* \"#utility.yul\":7502:7507   */\n      dup5\n        /* \"#utility.yul\":7499:7529   */\n      or\n        /* \"#utility.yul\":7489:7529   */\n      swap3\n      pop\n        /* \"#utility.yul\":7218:7535   */\n      pop\n      pop\n        /* \"#utility.yul\":7142:7535   */\n      swap4\n      swap3\n      pop\n      pop\n      pop\n      jump\t// out\n        /* \"#utility.yul\":7541:7601   */\n    tag_79:\n        /* \"#utility.yul\":7569:7572   */\n      0x00\n        /* \"#utility.yul\":7590:7595   */\n      dup2\n        /* \"#utility.yul\":7583:7595   */\n      swap1\n      pop\n        /* \"#utility.yul\":7541:7601   */\n      swap2\n      swap1\n      pop\n      jump\t// out\n        /* \"#utility.yul\":7607:7749   */\n    tag_80:\n        /* \"#utility.yul\":7657:7666   */\n      0x00\n        /* \"#utility.yul\":7690:7743   */\n      tag_179\n        /* \"#utility.yul\":7708:7742   */\n      tag_180\n        /* \"#utility.yul\":7717:7741   */\n      tag_181\n        /* \"#utility.yul\":7735:7740   */\n      dup5\n        /* \"#utility.yul\":7717:7741   */\n      tag_67\n      jump\t// in\n    tag_181:\n        /* \"#utility.yul\":7708:7742   */\n      tag_79\n      jump\t// in\n    tag_180:\n        /* \"#utility.yul\":7690:7743   */\n      tag_67\n      jump\t// in\n    tag_179:\n        /* \"#utility.yul\":7677:7743   */\n      swap1\n      pop\n        /* \"#utility.yul\":7607:7749   */\n      swap2\n      swap1\n      pop\n      jump\t// out\n        /* \"#utility.yul\":7755:7830   */\n    tag_81:\n        /* \"#utility.yul\":7798:7801   */\n      0x00\n        /* \"#utility.yul\":7819:7824   */\n      dup2\n        /* \"#utility.yul\":7812:7824   */\n      swap1\n      pop\n        /* \"#utility.yul\":7755:7830   */\n      swap2\n      swap1\n      pop\n      jump\t// out\n        /* \"#utility.yul\":7836:8105   */\n    tag_82:\n        /* \"#utility.yul\":7946:7985   */\n      tag_184\n        /* \"#utility.yul\":7977:7984   */\n      dup4\n        /* \"#utility.yul\":7946:7985   */\n      tag_80\n      jump\t// in\n    tag_184:\n        /* \"#utility.yul\":8007:8098   */\n      tag_185\n        /* \"#utility.yul\":8056:8097   */\n      tag_186\n        /* \"#utility.yul\":8080:8096   */\n      dup3\n        /* \"#utility.yul\":8056:8097   */\n      tag_81\n      jump\t// in\n    tag_186:\n        /* \"#utility.yul\":8048:8054   */\n      dup5\n        /* \"#utility.yul\":8041:8045   */\n      dup5\n        /* \"#utility.yul\":8035:8046   */\n      sload\n        /* \"#utility.yul\":8007:8098   */\n      tag_78\n      jump\t// in\n    tag_185:\n        /* \"#utility.yul\":8001:8005   */\n      dup3\n        /* \"#utility.yul\":7994:8099   */\n      sstore\n        /* \"#utility.yul\":7912:8105   */\n      pop\n        /* \"#utility.yul\":7836:8105   */\n      pop\n      pop\n      pop\n      jump\t// out\n        /* \"#utility.yul\":8111:8184   */\n    tag_83:\n        /* \"#utility.yul\":8156:8159   */\n      0x00\n        /* \"#utility.yul\":8111:8184   */\n      swap1\n      jump\t// out\n        /* \"#utility.yul\":8190:8379   */\n    tag_84:\n        /* \"#utility.yul\":8267:8299   */\n      tag_189\n      tag_83\n      jump\t// in\n    tag_189:\n        /* \"#utility.yul\":8308:8373   */\n      tag_190\n        /* \"#utility.yul\":8366:8372   */\n      dup2\n        /* \"#utility.yul\":8358:8364   */\n      dup5\n        /* \"#utility.yul\":8352:8356   */\n      dup5\n        /* \"#utility.yul\":8308:8373   */\n      tag_82\n      jump\t// in\n    tag_190:\n        /* \"#utility.yul\":8243:8379   */\n      pop\n        /* \"#utility.yul\":8190:8379   */\n      pop\n      pop\n      jump\t// out\n        /* \"#utility.yul\":8385:8571   */\n    tag_85:\n        /* \"#utility.yul\":8445:8565   */\n    tag_192:\n        /* \"#utility.yul\":8462:8465   */\n      dup2\n        /* \"#utility.yul\":8455:8460   */\n      dup2\n        /* \"#utility.yul\":8452:8466   */\n      lt\n        /* \"#utility.yul\":8445:8565   */\n      iszero\n      tag_194\n      jumpi\n        /* \"#utility.yul\":8516:8555   */\n      tag_195\n        /* \"#utility.yul\":8553:8554   */\n      0x00\n        /* \"#utility.yul\":8546:8551   */\n      dup3\n        /* \"#utility.yul\":8516:8555   */\n      tag_84\n      jump\t// in\n    tag_195:\n        /* \"#utility.yul\":8489:8490   */\n      0x01\n        /* \"#utility.yul\":8482:8487   */\n      dup2\n        /* \"#utility.yul\":8478:8491   */\n      add\n        /* \"#utility.yul\":8469:8491   */\n      swap1\n      pop\n        /* \"#utility.yul\":8445:8565   */\n      jump(tag_192)\n    tag_194:\n        /* \"#utility.yul\":8385:8571   */\n      pop\n      pop\n      jump\t// out\n        /* \"#utility.yul\":8577:9120   */\n    tag_86:\n        /* \"#utility.yul\":8678:8680   */\n      0x1f\n        /* \"#utility.yul\":8673:8676   */\n      dup3\n        /* \"#utility.yul\":8670:8681   */\n      gt\n        /* \"#utility.yul\":8667:9113   */\n      iszero\n      tag_197\n      jumpi\n        /* \"#utility.yul\":8712:8750   */\n      tag_198\n        /* \"#utility.yul\":8744:8749   */\n      dup2\n        /* \"#utility.yul\":8712:8750   */\n      tag_75\n      jump\t// in\n    tag_198:\n        /* \"#utility.yul\":8796:8825   */\n      tag_199\n        /* \"#utility.yul\":8814:8824   */\n      dup5\n        /* \"#utility.yul\":8796:8825   */\n      tag_76\n      jump\t// in\n    tag_199:\n        /* \"#utility.yul\":8786:8794   */\n      dup2\n        /* \"#utility.yul\":8782:8826   */\n      add\n        /* \"#utility.yul\":8979:8981   */\n      0x20\n        /* \"#utility.yul\":8967:8977   */\n      dup6\n        /* \"#utility.yul\":8964:8982   */\n      lt\n        /* \"#utility.yul\":8961:9010   */\n      iszero\n      tag_200\n      jumpi\n        /* \"#utility.yul\":9000:9008   */\n      dup2\n        /* \"#utility.yul\":8985:9008   */\n      swap1\n      pop\n        /* \"#utility.yul\":8961:9010   */\n    tag_200:\n        /* \"#utility.yul\":9023:9103   */\n      tag_201\n        /* \"#utility.yul\":9079:9101   */\n      tag_202\n        /* \"#utility.yul\":9097:9100   */\n      dup6\n        /* \"#utility.yul\":9079:9101   */\n      tag_76\n      jump\t// in\n    tag_202:\n        /* \"#utility.yul\":9069:9077   */\n      dup4\n        /* \"#utility.yul\":9065:9102   */\n      add\n        /* \"#utility.yul\":9052:9063   */\n      dup3\n        /* \"#utility.yul\":9023:9103   */\n      tag_85\n      jump\t// in\n    tag_201:\n        /* \"#utility.yul\":8682:9113   */\n      pop\n      pop\n        /* \"#utility.yul\":8667:9113   */\n    tag_197:\n        /* \"#utility.yul\":8577:9120   */\n      pop\n      pop\n      pop\n      jump\t// out\n        /* \"#utility.yul\":9126:9243   */\n    tag_87:\n        /* \"#utility.yul\":9180:9188   */\n      0x00\n        /* \"#utility.yul\":9230:9235   */\n      dup3\n        /* \"#utility.yul\":9224:9228   */\n      dup3\n        /* \"#utility.yul\":9220:9236   */\n      shr\n        /* \"#utility.yul\":9199:9236   */\n      swap1\n      pop\n        /* \"#utility.yul\":9126:9243   */\n      swap3\n      swap2\n      pop\n      pop\n      jump\t// out\n        /* \"#utility.yul\":9249:9418   */\n    tag_88:\n        /* \"#utility.yul\":9293:9299   */\n      0x00\n        /* \"#utility.yul\":9326:9377   */\n      tag_205\n        /* \"#utility.yul\":9374:9375   */\n      0x00\n        /* \"#utility.yul\":9370:9376   */\n      not\n        /* \"#utility.yul\":9362:9367   */\n      dup5\n        /* \"#utility.yul\":9359:9360   */\n      0x08\n        /* \"#utility.yul\":9355:9368   */\n      mul\n        /* \"#utility.yul\":9326:9377   */\n      tag_87\n      jump\t// in\n    tag_205:\n        /* \"#utility.yul\":9322:9378   */\n      not\n        /* \"#utility.yul\":9407:9411   */\n      dup1\n        /* \"#utility.yul\":9401:9405   */\n      dup4\n        /* \"#utility.yul\":9397:9412   */\n      and\n        /* \"#utility.yul\":9387:9412   */\n      swap2\n      pop\n        /* \"#utility.yul\":9300:9418   */\n      pop\n        /* \"#utility.yul\":9249:9418   */\n      swap3\n      swap2\n      pop\n      pop\n      jump\t// out\n        /* \"#utility.yul\":9423:9718   */\n    tag_89:\n        /* \"#utility.yul\":9499:9503   */\n      0x00\n        /* \"#utility.yul\":9645:9674   */\n      tag_207\n        /* \"#utility.yul\":9670:9673   */\n      dup4\n        /* \"#utility.yul\":9664:9668   */\n      dup4\n        /* \"#utility.yul\":9645:9674   */\n      tag_88\n      jump\t// in\n    tag_207:\n        /* \"#utility.yul\":9637:9674   */\n      swap2\n      pop\n        /* \"#utility.yul\":9707:9710   */\n      dup3\n        /* \"#utility.yul\":9704:9705   */\n      0x02\n        /* \"#utility.yul\":9700:9711   */\n      mul\n        /* \"#utility.yul\":9694:9698   */\n      dup3\n        /* \"#utility.yul\":9691:9712   */\n      or\n        /* \"#utility.yul\":9683:9712   */\n      swap1\n      pop\n        /* \"#utility.yul\":9423:9718   */\n      swap3\n      swap2\n      pop\n      pop\n      jump\t// out\n        /* \"#utility.yul\":9723:11118   */\n    tag_32:\n        /* \"#utility.yul\":9840:9877   */\n      tag_209\n        /* \"#utility.yul\":9873:9876   */\n      dup3\n        /* \"#utility.yul\":9840:9877   */\n      tag_70\n      jump\t// in\n    tag_209:\n        /* \"#utility.yul\":9942:9960   */\n      0xffffffffffffffff\n        /* \"#utility.yul\":9934:9940   */\n      dup2\n        /* \"#utility.yul\":9931:9961   */\n      gt\n        /* \"#utility.yul\":9928:9984   */\n      iszero\n      tag_210\n      jumpi\n        /* \"#utility.yul\":9964:9982   */\n      tag_211\n      tag_56\n      jump\t// in\n    tag_211:\n        /* \"#utility.yul\":9928:9984   */\n    tag_210:\n        /* \"#utility.yul\":10008:10046   */\n      tag_212\n        /* \"#utility.yul\":10040:10044   */\n      dup3\n        /* \"#utility.yul\":10034:10045   */\n      sload\n        /* \"#utility.yul\":10008:10046   */\n      tag_37\n      jump\t// in\n    tag_212:\n        /* \"#utility.yul\":10093:10160   */\n      tag_213\n        /* \"#utility.yul\":10153:10159   */\n      dup3\n        /* \"#utility.yul\":10145:10151   */\n      dup3\n        /* \"#utility.yul\":10139:10143   */\n      dup6\n        /* \"#utility.yul\":10093:10160   */\n      tag_86\n      jump\t// in\n    tag_213:\n        /* \"#utility.yul\":10187:10188   */\n      0x00\n        /* \"#utility.yul\":10211:10215   */\n      0x20\n        /* \"#utility.yul\":10198:10215   */\n      swap1\n      pop\n        /* \"#utility.yul\":10243:10245   */\n      0x1f\n        /* \"#utility.yul\":10235:10241   */\n      dup4\n        /* \"#utility.yul\":10232:10246   */\n      gt\n        /* \"#utility.yul\":10260:10261   */\n      0x01\n        /* \"#utility.yul\":10255:10873   */\n      dup2\n      eq\n      tag_215\n      jumpi\n        /* \"#utility.yul\":10917:10918   */\n      0x00\n        /* \"#utility.yul\":10934:10940   */\n      dup5\n        /* \"#utility.yul\":10931:11008   */\n      iszero\n      tag_216\n      jumpi\n        /* \"#utility.yul\":10983:10992   */\n      dup3\n        /* \"#utility.yul\":10978:10981   */\n      dup8\n        /* \"#utility.yul\":10974:10993   */\n      add\n        /* \"#utility.yul\":10968:10994   */\n      mload\n        /* \"#utility.yul\":10959:10994   */\n      swap1\n      pop\n        /* \"#utility.yul\":10931:11008   */\n    tag_216:\n        /* \"#utility.yul\":11034:11101   */\n      tag_217\n        /* \"#utility.yul\":11094:11100   */\n      dup6\n        /* \"#utility.yul\":11087:11092   */\n      dup3\n        /* \"#utility.yul\":11034:11101   */\n      tag_89\n      jump\t// in\n    tag_217:\n        /* \"#utility.yul\":11028:11032   */\n      dup7\n        /* \"#utility.yul\":11021:11102   */\n      sstore\n        /* \"#utility.yul\":10890:11112   */\n      pop\n        /* \"#utility.yul\":10225:11112   */\n      jump(tag_214)\n        /* \"#utility.yul\":10255:10873   */\n    tag_215:\n        /* \"#utility.yul\":10307:10311   */\n      0x1f\n        /* \"#utility.yul\":10303:10312   */\n      not\n        /* \"#utility.yul\":10295:10301   */\n      dup5\n        /* \"#utility.yul\":10291:10313   */\n      and\n        /* \"#utility.yul\":10341:10378   */\n      tag_218\n        /* \"#utility.yul\":10373:10377   */\n      dup7\n        /* \"#utility.yul\":10341:10378   */\n      tag_75\n      jump\t// in\n    tag_218:\n        /* \"#utility.yul\":10400:10401   */\n      0x00\n        /* \"#utility.yul\":10414:10622   */\n    tag_219:\n        /* \"#utility.yul\":10428:10435   */\n      dup3\n        /* \"#utility.yul\":10425:10426   */\n      dup2\n        /* \"#utility.yul\":10422:10436   */\n      lt\n        /* \"#utility.yul\":10414:10622   */\n      iszero\n      tag_221\n      jumpi\n        /* \"#utility.yul\":10507:10516   */\n      dup5\n        /* \"#utility.yul\":10502:10505   */\n      dup10\n        /* \"#utility.yul\":10498:10517   */\n      add\n        /* \"#utility.yul\":10492:10518   */\n      mload\n        /* \"#utility.yul\":10484:10490   */\n      dup3\n        /* \"#utility.yul\":10477:10519   */\n      sstore\n        /* \"#utility.yul\":10558:10559   */\n      0x01\n        /* \"#utility.yul\":10550:10556   */\n      dup3\n        /* \"#utility.yul\":10546:10560   */\n      add\n        /* \"#utility.yul\":10536:10560   */\n      swap2\n      pop\n        /* \"#utility.yul\":10605:10607   */\n      0x20\n        /* \"#utility.yul\":10594:10603   */\n      dup6\n        /* \"#utility.yul\":10590:10608   */\n      add\n        /* \"#utility.yul\":10577:10608   */\n      swap5\n      pop\n        /* \"#utility.yul\":10451:10455   */\n      0x20\n        /* \"#utility.yul\":10448:10449   */\n      dup2\n        /* \"#utility.yul\":10444:10456   */\n      add\n        /* \"#utility.yul\":10439:10456   */\n      swap1\n      pop\n        /* \"#utility.yul\":10414:10622   */\n      jump(tag_219)\n    tag_221:\n        /* \"#utility.yul\":10650:10656   */\n      dup7\n        /* \"#utility.yul\":10641:10648   */\n      dup4\n        /* \"#utility.yul\":10638:10657   */\n      lt\n        /* \"#utility.yul\":10635:10814   */\n      iszero\n      tag_222\n      jumpi\n        /* \"#utility.yul\":10708:10717   */\n      dup5\n        /* \"#utility.yul\":10703:10706   */\n      dup10\n        /* \"#utility.yul\":10699:10718   */\n      add\n        /* \"#utility.yul\":10693:10719   */\n      mload\n        /* \"#utility.yul\":10751:10799   */\n      tag_223\n        /* \"#utility.yul\":10793:10797   */\n      0x1f\n        /* \"#utility.yul\":10785:10791   */\n      dup10\n        /* \"#utility.yul\":10781:10798   */\n      and\n        /* \"#utility.yul\":10770:10779   */\n      dup3\n        /* \"#utility.yul\":10751:10799   */\n      tag_88\n      jump\t// in\n    tag_223:\n        /* \"#utility.yul\":10743:10749   */\n      dup4\n        /* \"#utility.yul\":10736:10800   */\n      sstore\n        /* \"#utility.yul\":10658:10814   */\n      pop\n        /* \"#utility.yul\":10635:10814   */\n    tag_222:\n        /* \"#utility.yul\":10860:10861   */\n      0x01\n        /* \"#utility.yul\":10856:10857   */\n      0x02\n        /* \"#utility.yul\":10848:10854   */\n      dup9\n        /* \"#utility.yul\":10844:10858   */\n      mul\n        /* \"#utility.yul\":10840:10862   */\n      add\n        /* \"#utility.yul\":10834:10838   */\n      dup9\n        /* \"#utility.yul\":10827:10863   */\n      sstore\n        /* \"#utility.yul\":10262:10873   */\n      pop\n      pop\n      pop\n        /* \"#utility.yul\":10225:11112   */\n    tag_214:\n      pop\n        /* \"#utility.yul\":9815:11118   */\n      pop\n      pop\n      pop\n        /* \"#utility.yul\":9723:11118   */\n      pop\n      pop\n      jump\t// out\n        /* \"#utility.yul\":11124:11304   */\n    tag_90:\n        /* \"#utility.yul\":11172:11249   */\n      0x4e487b7100000000000000000000000000000000000000000000000000000000\n        /* \"#utility.yul\":11169:11170   */\n      0x00\n        /* \"#utility.yul\":11162:11250   */\n      mstore\n        /* \"#utility.yul\":11269:11273   */\n      0x11\n        /* \"#utility.yul\":11266:11267   */\n      0x04\n        /* \"#utility.yul\":11259:11274   */\n      mstore\n        /* \"#utility.yul\":11293:11297   */\n      0x24\n        /* \"#utility.yul\":11290:11291   */\n      0x00\n        /* \"#utility.yul\":11283:11298   */\n      revert\n        /* \"#utility.yul\":11310:11541   */\n    tag_49:\n        /* \"#utility.yul\":11348:11351   */\n      0x00\n        /* \"#utility.yul\":11371:11394   */\n      tag_226\n        /* \"#utility.yul\":11388:11393   */\n      dup3\n        /* \"#utility.yul\":11371:11394   */\n      tag_63\n      jump\t// in\n    tag_226:\n        /* \"#utility.yul\":11362:11394   */\n      swap2\n      pop\n        /* \"#utility.yul\":11416:11482   */\n      0x7fffffffffffffffffffffffffffffffffffffffffffffffffffffffffffffff\n        /* \"#utility.yul\":11409:11414   */\n      dup3\n        /* \"#utility.yul\":11406:11483   */\n      sub\n        /* \"#utility.yul\":11403:11506   */\n      tag_227\n      jumpi\n        /* \"#utility.yul\":11486:11504   */\n      tag_228\n      tag_90\n      jump\t// in\n    tag_228:\n        /* \"#utility.yul\":11403:11506   */\n    tag_227:\n        /* \"#utility.yul\":11533:11534   */\n      0x01\n        /* \"#utility.yul\":11526:11531   */\n      dup3\n        /* \"#utility.yul\":11522:11535   */\n      add\n        /* \"#utility.yul\":11515:11535   */\n      swap1\n      pop\n        /* \"#utility.yul\":11310:11541   */\n      swap2\n      swap1\n      pop\n      jump\t// out\n\n    auxdata: 0xa2646970667358221220713bf1e35107fd088e9d1c476af21aba73068e87944caeea3e7c197ca6a9aaa564736f6c63430008120033\n}\n",
				"bytecode": {
					"linkReferences": {},
					"object": "608060405260016000806101000a81548160ff0219169083151502179055506103ea6001556040518060400160405280600c81526020017f736e646b6a62636b6a646e610000000000000000000000000000000000000000815250600290816200006a91906200051d565b507383f136701d8f280e9f44d01ae762cc12670555f4600360006101000a81548173ffffffffffffffffffffffffffffffffffffffff021916908373ffffffffffffffffffffffffffffffffffffffff1602179055507f68656c6c6f00000000000000000000000000000000000000000000000000000060045560006005556040518060a00160405280600160ff168152602001600260ff168152602001600360ff168152602001600460ff168152602001600560ff168152506006906005620001369291906200022d565b506040518060400160405280600b81526020016040518060400160405280600781526020017f706572736f6e31000000000000000000000000000000000000000000000000008152508152506007600082015181600001556020820151816001019081620001a591906200051d565b5050506040518060400160405280600b81526020016040518060400160405280600781526020017f706572736f6e310000000000000000000000000000000000000000000000000081525081525060096000820151816000015560208201518160010190816200021691906200051d565b5050503480156200022657600080fd5b5062000604565b82805482825590600052602060002090810192821562000271579160200282015b8281111562000270578251829060ff169055916020019190600101906200024e565b5b50905062000280919062000284565b5090565b5b808211156200029f57600081600090555060010162000285565b5090565b600081519050919050565b7f4e487b7100000000000000000000000000000000000000000000000000000000600052604160045260246000fd5b7f4e487b7100000000000000000000000000000000000000000000000000000000600052602260045260246000fd5b600060028204905060018216806200032557607f821691505b6020821081036200033b576200033a620002dd565b5b50919050565b60008190508160005260206000209050919050565b60006020601f8301049050919050565b600082821b905092915050565b600060088302620003a57fffffffffffffffffffffffffffffffffffffffffffffffffffffffffffffffff8262000366565b620003b1868362000366565b95508019841693508086168417925050509392505050565b6000819050919050565b6000819050919050565b6000620003fe620003f8620003f284620003c9565b620003d3565b620003c9565b9050919050565b6000819050919050565b6200041a83620003dd565b62000432620004298262000405565b84845462000373565b825550505050565b600090565b620004496200043a565b620004568184846200040f565b505050565b5b818110156200047e57620004726000826200043f565b6001810190506200045c565b5050565b601f821115620004cd57620004978162000341565b620004a28462000356565b81016020851015620004b2578190505b620004ca620004c18562000356565b8301826200045b565b50505b505050565b600082821c905092915050565b6000620004f260001984600802620004d2565b1980831691505092915050565b60006200050d8383620004df565b9150826002028217905092915050565b6200052882620002a3565b67ffffffffffffffff811115620005445762000543620002ae565b5b6200055082546200030c565b6200055d82828562000482565b600060209050601f83116001811462000595576000841562000580578287015190505b6200058c8582620004ff565b865550620005fc565b601f198416620005a58662000341565b60005b82811015620005cf57848901518255600182019150602085019450602081019050620005a8565b86831015620005ef5784890151620005eb601f891682620004df565b8355505b6001600288020188555050505b505050505050565b6109ca80620006146000396000f3fe608060405234801561001057600080fd5b50600436106100575760003560e01c806307c00c011461005c5780632e64cec1146100785780634622ab031461009657806381d01ed3146100c7578063d80deced146100e6575b600080fd5b6100766004803603810190610071919061047a565b610102565b005b610080610168565b60405161008d91906104e5565b60405180910390f35b6100b060048036038101906100ab9190610536565b610172565b6040516100be9291906105e2565b60405180910390f35b6100cf61022e565b6040516100dd9291906105e2565b60405180910390f35b61010060048036038101906100fb9190610612565b6102c8565b005b600b6040518060400160405280838152602001848152509080600181540180825580915050600190039060005260206000209060020201600090919091909150600082015181600001556020820151816001019081610161919061084b565b5050505050565b6000600554905090565b600b818154811061018257600080fd5b90600052602060002090600202016000915090508060000154908060010180546101ab9061066e565b80601f01602080910402602001604051908101604052809291908181526020018280546101d79061066e565b80156102245780601f106101f957610100808354040283529160200191610224565b820191906000526020600020905b81548152906001019060200180831161020757829003601f168201915b5050505050905082565b60098060000154908060010180546102459061066e565b80601f01602080910402602001604051908101604052809291908181526020018280546102719061066e565b80156102be5780601f10610293576101008083540402835291602001916102be565b820191906000526020600020905b8154815290600101906020018083116102a157829003601f168201915b5050505050905082565b80600581905550600560008154809291906102e29061094c565b919050555050565b6000604051905090565b600080fd5b600080fd5b600080fd5b600080fd5b6000601f19601f8301169050919050565b7f4e487b7100000000000000000000000000000000000000000000000000000000600052604160045260246000fd5b61035182610308565b810181811067ffffffffffffffff821117156103705761036f610319565b5b80604052505050565b60006103836102ea565b905061038f8282610348565b919050565b600067ffffffffffffffff8211156103af576103ae610319565b5b6103b882610308565b9050602081019050919050565b82818337600083830152505050565b60006103e76103e284610394565b610379565b90508281526020810184848401111561040357610402610303565b5b61040e8482856103c5565b509392505050565b600082601f83011261042b5761042a6102fe565b5b813561043b8482602086016103d4565b91505092915050565b6000819050919050565b61045781610444565b811461046257600080fd5b50565b6000813590506104748161044e565b92915050565b60008060408385031215610491576104906102f4565b5b600083013567ffffffffffffffff8111156104af576104ae6102f9565b5b6104bb85828601610416565b92505060206104cc85828601610465565b9150509250929050565b6104df81610444565b82525050565b60006020820190506104fa60008301846104d6565b92915050565b6000819050919050565b61051381610500565b811461051e57600080fd5b50565b6000813590506105308161050a565b92915050565b60006020828403121561054c5761054b6102f4565b5b600061055a84828501610521565b91505092915050565b600081519050919050565b600082825260208201905092915050565b60005b8381101561059d578082015181840152602081019050610582565b60008484015250505050565b60006105b482610563565b6105be818561056e565b93506105ce81856020860161057f565b6105d781610308565b840191505092915050565b60006040820190506105f760008301856104d6565b818103602083015261060981846105a9565b90509392505050565b600060208284031215610628576106276102f4565b5b600061063684828501610465565b91505092915050565b7f4e487b7100000000000000000000000000000000000000000000000000000000600052602260045260246000fd5b6000600282049050600182168061068657607f821691505b6020821081036106995761069861063f565b5b50919050565b60008190508160005260206000209050919050565b60006020601f8301049050919050565b600082821b905092915050565b6000600883026107017fffffffffffffffffffffffffffffffffffffffffffffffffffffffffffffffff826106c4565b61070b86836106c4565b95508019841693508086168417925050509392505050565b6000819050919050565b600061074861074361073e84610500565b610723565b610500565b9050919050565b6000819050919050565b6107628361072d565b61077661076e8261074f565b8484546106d1565b825550505050565b600090565b61078b61077e565b610796818484610759565b505050565b5b818110156107ba576107af600082610783565b60018101905061079c565b5050565b601f8211156107ff576107d08161069f565b6107d9846106b4565b810160208510156107e8578190505b6107fc6107f4856106b4565b83018261079b565b50505b505050565b600082821c905092915050565b600061082260001984600802610804565b1980831691505092915050565b600061083b8383610811565b9150826002028217905092915050565b61085482610563565b67ffffffffffffffff81111561086d5761086c610319565b5b610877825461066e565b6108828282856107be565b600060209050601f8311600181146108b557600084156108a3578287015190505b6108ad858261082f565b865550610915565b601f1984166108c38661069f565b60005b828110156108eb578489015182556001820191506020850194506020810190506108c6565b868310156109085784890151610904601f891682610811565b8355505b6001600288020188555050505b505050505050565b7f4e487b7100000000000000000000000000000000000000000000000000000000600052601160045260246000fd5b600061095782610444565b91507f7fffffffffffffffffffffffffffffffffffffffffffffffffffffffffffffff82036109895761098861091d565b5b60018201905091905056fea2646970667358221220713bf1e35107fd088e9d1c476af21aba73068e87944caeea3e7c197ca6a9aaa564736f6c63430008120033",
					"opcodes": "PUSH1 0x80 PUSH1 0x40 MSTORE PUSH1 0x1 PUSH1 0x0 DUP1 PUSH2 0x100 EXP DUP2 SLOAD DUP2 PUSH1 0xFF MUL NOT AND SWAP1 DUP4 ISZERO ISZERO MUL OR SWAP1 SSTORE POP PUSH2 0x3EA PUSH1 0x1 SSTORE PUSH1 0x40 MLOAD DUP1 PUSH1 0x40 ADD PUSH1 0x40 MSTORE DUP1 PUSH1 0xC DUP2 MSTORE PUSH1 0x20 ADD PUSH32 0x736E646B6A62636B6A646E610000000000000000000000000000000000000000 DUP2 MSTORE POP PUSH1 0x2 SWAP1 DUP2 PUSH3 0x6A SWAP2 SWAP1 PUSH3 0x51D JUMP JUMPDEST POP PUSH20 0x83F136701D8F280E9F44D01AE762CC12670555F4 PUSH1 0x3 PUSH1 0x0 PUSH2 0x100 EXP DUP2 SLOAD DUP2 PUSH20 0xFFFFFFFFFFFFFFFFFFFFFFFFFFFFFFFFFFFFFFFF MUL NOT AND SWAP1 DUP4 PUSH20 0xFFFFFFFFFFFFFFFFFFFFFFFFFFFFFFFFFFFFFFFF AND MUL OR SWAP1 SSTORE POP PUSH32 0x68656C6C6F000000000000000000000000000000000000000000000000000000 PUSH1 0x4 SSTORE PUSH1 0x0 PUSH1 0x5 SSTORE PUSH1 0x40 MLOAD DUP1 PUSH1 0xA0 ADD PUSH1 0x40 MSTORE DUP1 PUSH1 0x1 PUSH1 0xFF AND DUP2 MSTORE PUSH1 0x20 ADD PUSH1 0x2 PUSH1 0xFF AND DUP2 MSTORE PUSH1 0x20 ADD PUSH1 0x3 PUSH1 0xFF AND DUP2 MSTORE PUSH1 0x20 ADD PUSH1 0x4 PUSH1 0xFF AND DUP2 MSTORE PUSH1 0x20 ADD PUSH1 0x5 PUSH1 0xFF AND DUP2 MSTORE POP PUSH1 0x6 SWAP1 PUSH1 0x5 PUSH3 0x136 SWAP3 SWAP2 SWAP1 PUSH3 0x22D JUMP JUMPDEST POP PUSH1 0x40 MLOAD DUP1 PUSH1 0x40 ADD PUSH1 0x40 MSTORE DUP1 PUSH1 0xB DUP2 MSTORE PUSH1 0x20 ADD PUSH1 0x40 MLOAD DUP1 PUSH1 0x40 ADD PUSH1 0x40 MSTORE DUP1 PUSH1 0x7 DUP2 MSTORE PUSH1 0x20 ADD PUSH32 0x706572736F6E3100000000000000000000000000000000000000000000000000 DUP2 MSTORE POP DUP2 MSTORE POP PUSH1 0x7 PUSH1 0x0 DUP3 ADD MLOAD DUP2 PUSH1 0x0 ADD SSTORE PUSH1 0x20 DUP3 ADD MLOAD DUP2 PUSH1 0x1 ADD SWAP1 DUP2 PUSH3 0x1A5 SWAP2 SWAP1 PUSH3 0x51D JUMP JUMPDEST POP POP POP PUSH1 0x40 MLOAD DUP1 PUSH1 0x40 ADD PUSH1 0x40 MSTORE DUP1 PUSH1 0xB DUP2 MSTORE PUSH1 0x20 ADD PUSH1 0x40 MLOAD DUP1 PUSH1 0x40 ADD PUSH1 0x40 MSTORE DUP1 PUSH1 0x7 DUP2 MSTORE PUSH1 0x20 ADD PUSH32 0x706572736F6E3100000000000000000000000000000000000000000000000000 DUP2 MSTORE POP DUP2 MSTORE POP PUSH1 0x9 PUSH1 0x0 DUP3 ADD MLOAD DUP2 PUSH1 0x0 ADD SSTORE PUSH1 0x20 DUP3 ADD MLOAD DUP2 PUSH1 0x1 ADD SWAP1 DUP2 PUSH3 0x216 SWAP2 SWAP1 PUSH3 0x51D JUMP JUMPDEST POP POP POP CALLVALUE DUP1 ISZERO PUSH3 0x226 JUMPI PUSH1 0x0 DUP1 REVERT JUMPDEST POP PUSH3 0x604 JUMP JUMPDEST DUP3 DUP1 SLOAD DUP3 DUP3 SSTORE SWAP1 PUSH1 0x0 MSTORE PUSH1 0x20 PUSH1 0x0 KECCAK256 SWAP1 DUP2 ADD SWAP3 DUP3 ISZERO PUSH3 0x271 JUMPI SWAP2 PUSH1 0x20 MUL DUP3 ADD JUMPDEST DUP3 DUP2 GT ISZERO PUSH3 0x270 JUMPI DUP3 MLOAD DUP3 SWAP1 PUSH1 0xFF AND SWAP1 SSTORE SWAP2 PUSH1 0x20 ADD SWAP2 SWAP1 PUSH1 0x1 ADD SWAP1 PUSH3 0x24E JUMP JUMPDEST JUMPDEST POP SWAP1 POP PUSH3 0x280 SWAP2 SWAP1 PUSH3 0x284 JUMP JUMPDEST POP SWAP1 JUMP JUMPDEST JUMPDEST DUP1 DUP3 GT ISZERO PUSH3 0x29F JUMPI PUSH1 0x0 DUP2 PUSH1 0x0 SWAP1 SSTORE POP PUSH1 0x1 ADD PUSH3 0x285 JUMP JUMPDEST POP SWAP1 JUMP JUMPDEST PUSH1 0x0 DUP2 MLOAD SWAP1 POP SWAP2 SWAP1 POP JUMP JUMPDEST PUSH32 0x4E487B7100000000000000000000000000000000000000000000000000000000 PUSH1 0x0 MSTORE PUSH1 0x41 PUSH1 0x4 MSTORE PUSH1 0x24 PUSH1 0x0 REVERT JUMPDEST PUSH32 0x4E487B7100000000000000000000000000000000000000000000000000000000 PUSH1 0x0 MSTORE PUSH1 0x22 PUSH1 0x4 MSTORE PUSH1 0x24 PUSH1 0x0 REVERT JUMPDEST PUSH1 0x0 PUSH1 0x2 DUP3 DIV SWAP1 POP PUSH1 0x1 DUP3 AND DUP1 PUSH3 0x325 JUMPI PUSH1 0x7F DUP3 AND SWAP2 POP JUMPDEST PUSH1 0x20 DUP3 LT DUP2 SUB PUSH3 0x33B JUMPI PUSH3 0x33A PUSH3 0x2DD JUMP JUMPDEST JUMPDEST POP SWAP2 SWAP1 POP JUMP JUMPDEST PUSH1 0x0 DUP2 SWAP1 POP DUP2 PUSH1 0x0 MSTORE PUSH1 0x20 PUSH1 0x0 KECCAK256 SWAP1 POP SWAP2 SWAP1 POP JUMP JUMPDEST PUSH1 0x0 PUSH1 0x20 PUSH1 0x1F DUP4 ADD DIV SWAP1 POP SWAP2 SWAP1 POP JUMP JUMPDEST PUSH1 0x0 DUP3 DUP3 SHL SWAP1 POP SWAP3 SWAP2 POP POP JUMP JUMPDEST PUSH1 0x0 PUSH1 0x8 DUP4 MUL PUSH3 0x3A5 PUSH32 0xFFFFFFFFFFFFFFFFFFFFFFFFFFFFFFFFFFFFFFFFFFFFFFFFFFFFFFFFFFFFFFFF DUP3 PUSH3 0x366 JUMP JUMPDEST PUSH3 0x3B1 DUP7 DUP4 PUSH3 0x366 JUMP JUMPDEST SWAP6 POP DUP1 NOT DUP5 AND SWAP4 POP DUP1 DUP7 AND DUP5 OR SWAP3 POP POP POP SWAP4 SWAP3 POP POP POP JUMP JUMPDEST PUSH1 0x0 DUP2 SWAP1 POP SWAP2 SWAP1 POP JUMP JUMPDEST PUSH1 0x0 DUP2 SWAP1 POP SWAP2 SWAP1 POP JUMP JUMPDEST PUSH1 0x0 PUSH3 0x3FE PUSH3 0x3F8 PUSH3 0x3F2 DUP5 PUSH3 0x3C9 JUMP JUMPDEST PUSH3 0x3D3 JUMP JUMPDEST PUSH3 0x3C9 JUMP JUMPDEST SWAP1 POP SWAP2 SWAP1 POP JUMP JUMPDEST PUSH1 0x0 DUP2 SWAP1 POP SWAP2 SWAP1 POP JUMP JUMPDEST PUSH3 0x41A DUP4 PUSH3 0x3DD JUMP JUMPDEST PUSH3 0x432 PUSH3 0x429 DUP3 PUSH3 0x405 JUMP JUMPDEST DUP5 DUP5 SLOAD PUSH3 0x373 JUMP JUMPDEST DUP3 SSTORE POP POP POP POP JUMP JUMPDEST PUSH1 0x0 SWAP1 JUMP JUMPDEST PUSH3 0x449 PUSH3 0x43A JUMP JUMPDEST PUSH3 0x456 DUP2 DUP5 DUP5 PUSH3 0x40F JUMP JUMPDEST POP POP POP JUMP JUMPDEST JUMPDEST DUP2 DUP2 LT ISZERO PUSH3 0x47E JUMPI PUSH3 0x472 PUSH1 0x0 DUP3 PUSH3 0x43F JUMP JUMPDEST PUSH1 0x1 DUP2 ADD SWAP1 POP PUSH3 0x45C JUMP JUMPDEST POP POP JUMP JUMPDEST PUSH1 0x1F DUP3 GT ISZERO PUSH3 0x4CD JUMPI PUSH3 0x497 DUP2 PUSH3 0x341 JUMP JUMPDEST PUSH3 0x4A2 DUP5 PUSH3 0x356 JUMP JUMPDEST DUP2 ADD PUSH1 0x20 DUP6 LT ISZERO PUSH3 0x4B2 JUMPI DUP2 SWAP1 POP JUMPDEST PUSH3 0x4CA PUSH3 0x4C1 DUP6 PUSH3 0x356 JUMP JUMPDEST DUP4 ADD DUP3 PUSH3 0x45B JUMP JUMPDEST POP POP JUMPDEST POP POP POP JUMP JUMPDEST PUSH1 0x0 DUP3 DUP3 SHR SWAP1 POP SWAP3 SWAP2 POP POP JUMP JUMPDEST PUSH1 0x0 PUSH3 0x4F2 PUSH1 0x0 NOT DUP5 PUSH1 0x8 MUL PUSH3 0x4D2 JUMP JUMPDEST NOT DUP1 DUP4 AND SWAP2 POP POP SWAP3 SWAP2 POP POP JUMP JUMPDEST PUSH1 0x0 PUSH3 0x50D DUP4 DUP4 PUSH3 0x4DF JUMP JUMPDEST SWAP2 POP DUP3 PUSH1 0x2 MUL DUP3 OR SWAP1 POP SWAP3 SWAP2 POP POP JUMP JUMPDEST PUSH3 0x528 DUP3 PUSH3 0x2A3 JUMP JUMPDEST PUSH8 0xFFFFFFFFFFFFFFFF DUP2 GT ISZERO PUSH3 0x544 JUMPI PUSH3 0x543 PUSH3 0x2AE JUMP JUMPDEST JUMPDEST PUSH3 0x550 DUP3 SLOAD PUSH3 0x30C JUMP JUMPDEST PUSH3 0x55D DUP3 DUP3 DUP6 PUSH3 0x482 JUMP JUMPDEST PUSH1 0x0 PUSH1 0x20 SWAP1 POP PUSH1 0x1F DUP4 GT PUSH1 0x1 DUP2 EQ PUSH3 0x595 JUMPI PUSH1 0x0 DUP5 ISZERO PUSH3 0x580 JUMPI DUP3 DUP8 ADD MLOAD SWAP1 POP JUMPDEST PUSH3 0x58C DUP6 DUP3 PUSH3 0x4FF JUMP JUMPDEST DUP7 SSTORE POP PUSH3 0x5FC JUMP JUMPDEST PUSH1 0x1F NOT DUP5 AND PUSH3 0x5A5 DUP7 PUSH3 0x341 JUMP JUMPDEST PUSH1 0x0 JUMPDEST DUP3 DUP2 LT ISZERO PUSH3 0x5CF JUMPI DUP5 DUP10 ADD MLOAD DUP3 SSTORE PUSH1 0x1 DUP3 ADD SWAP2 POP PUSH1 0x20 DUP6 ADD SWAP5 POP PUSH1 0x20 DUP2 ADD SWAP1 POP PUSH3 0x5A8 JUMP JUMPDEST DUP7 DUP4 LT ISZERO PUSH3 0x5EF JUMPI DUP5 DUP10 ADD MLOAD PUSH3 0x5EB PUSH1 0x1F DUP10 AND DUP3 PUSH3 0x4DF JUMP JUMPDEST DUP4 SSTORE POP JUMPDEST PUSH1 0x1 PUSH1 0x2 DUP9 MUL ADD DUP9 SSTORE POP POP POP JUMPDEST POP POP POP POP POP POP JUMP JUMPDEST PUSH2 0x9CA DUP1 PUSH3 0x614 PUSH1 0x0 CODECOPY PUSH1 0x0 RETURN INVALID PUSH1 0x80 PUSH1 0x40 MSTORE CALLVALUE DUP1 ISZERO PUSH2 0x10 JUMPI PUSH1 0x0 DUP1 REVERT JUMPDEST POP PUSH1 0x4 CALLDATASIZE LT PUSH2 0x57 JUMPI PUSH1 0x0 CALLDATALOAD PUSH1 0xE0 SHR DUP1 PUSH4 0x7C00C01 EQ PUSH2 0x5C JUMPI DUP1 PUSH4 0x2E64CEC1 EQ PUSH2 0x78 JUMPI DUP1 PUSH4 0x4622AB03 EQ PUSH2 0x96 JUMPI DUP1 PUSH4 0x81D01ED3 EQ PUSH2 0xC7 JUMPI DUP1 PUSH4 0xD80DECED EQ PUSH2 0xE6 JUMPI JUMPDEST PUSH1 0x0 DUP1 REVERT JUMPDEST PUSH2 0x76 PUSH1 0x4 DUP1 CALLDATASIZE SUB DUP2 ADD SWAP1 PUSH2 0x71 SWAP2 SWAP1 PUSH2 0x47A JUMP JUMPDEST PUSH2 0x102 JUMP JUMPDEST STOP JUMPDEST PUSH2 0x80 PUSH2 0x168 JUMP JUMPDEST PUSH1 0x40 MLOAD PUSH2 0x8D SWAP2 SWAP1 PUSH2 0x4E5 JUMP JUMPDEST PUSH1 0x40 MLOAD DUP1 SWAP2 SUB SWAP1 RETURN JUMPDEST PUSH2 0xB0 PUSH1 0x4 DUP1 CALLDATASIZE SUB DUP2 ADD SWAP1 PUSH2 0xAB SWAP2 SWAP1 PUSH2 0x536 JUMP JUMPDEST PUSH2 0x172 JUMP JUMPDEST PUSH1 0x40 MLOAD PUSH2 0xBE SWAP3 SWAP2 SWAP1 PUSH2 0x5E2 JUMP JUMPDEST PUSH1 0x40 MLOAD DUP1 SWAP2 SUB SWAP1 RETURN JUMPDEST PUSH2 0xCF PUSH2 0x22E JUMP JUMPDEST PUSH1 0x40 MLOAD PUSH2 0xDD SWAP3 SWAP2 SWAP1 PUSH2 0x5E2 JUMP JUMPDEST PUSH1 0x40 MLOAD DUP1 SWAP2 SUB SWAP1 RETURN JUMPDEST PUSH2 0x100 PUSH1 0x4 DUP1 CALLDATASIZE SUB DUP2 ADD SWAP1 PUSH2 0xFB SWAP2 SWAP1 PUSH2 0x612 JUMP JUMPDEST PUSH2 0x2C8 JUMP JUMPDEST STOP JUMPDEST PUSH1 0xB PUSH1 0x40 MLOAD DUP1 PUSH1 0x40 ADD PUSH1 0x40 MSTORE DUP1 DUP4 DUP2 MSTORE PUSH1 0x20 ADD DUP5 DUP2 MSTORE POP SWAP1 DUP1 PUSH1 0x1 DUP2 SLOAD ADD DUP1 DUP3 SSTORE DUP1 SWAP2 POP POP PUSH1 0x1 SWAP1 SUB SWAP1 PUSH1 0x0 MSTORE PUSH1 0x20 PUSH1 0x0 KECCAK256 SWAP1 PUSH1 0x2 MUL ADD PUSH1 0x0 SWAP1 SWAP2 SWAP1 SWAP2 SWAP1 SWAP2 POP PUSH1 0x0 DUP3 ADD MLOAD DUP2 PUSH1 0x0 ADD SSTORE PUSH1 0x20 DUP3 ADD MLOAD DUP2 PUSH1 0x1 ADD SWAP1 DUP2 PUSH2 0x161 SWAP2 SWAP1 PUSH2 0x84B JUMP JUMPDEST POP POP POP POP POP JUMP JUMPDEST PUSH1 0x0 PUSH1 0x5 SLOAD SWAP1 POP SWAP1 JUMP JUMPDEST PUSH1 0xB DUP2 DUP2 SLOAD DUP2 LT PUSH2 0x182 JUMPI PUSH1 0x0 DUP1 REVERT JUMPDEST SWAP1 PUSH1 0x0 MSTORE PUSH1 0x20 PUSH1 0x0 KECCAK256 SWAP1 PUSH1 0x2 MUL ADD PUSH1 0x0 SWAP2 POP SWAP1 POP DUP1 PUSH1 0x0 ADD SLOAD SWAP1 DUP1 PUSH1 0x1 ADD DUP1 SLOAD PUSH2 0x1AB SWAP1 PUSH2 0x66E JUMP JUMPDEST DUP1 PUSH1 0x1F ADD PUSH1 0x20 DUP1 SWAP2 DIV MUL PUSH1 0x20 ADD PUSH1 0x40 MLOAD SWAP1 DUP2 ADD PUSH1 0x40 MSTORE DUP1 SWAP3 SWAP2 SWAP1 DUP2 DUP2 MSTORE PUSH1 0x20 ADD DUP3 DUP1 SLOAD PUSH2 0x1D7 SWAP1 PUSH2 0x66E JUMP JUMPDEST DUP1 ISZERO PUSH2 0x224 JUMPI DUP1 PUSH1 0x1F LT PUSH2 0x1F9 JUMPI PUSH2 0x100 DUP1 DUP4 SLOAD DIV MUL DUP4 MSTORE SWAP2 PUSH1 0x20 ADD SWAP2 PUSH2 0x224 JUMP JUMPDEST DUP3 ADD SWAP2 SWAP1 PUSH1 0x0 MSTORE PUSH1 0x20 PUSH1 0x0 KECCAK256 SWAP1 JUMPDEST DUP2 SLOAD DUP2 MSTORE SWAP1 PUSH1 0x1 ADD SWAP1 PUSH1 0x20 ADD DUP1 DUP4 GT PUSH2 0x207 JUMPI DUP3 SWAP1 SUB PUSH1 0x1F AND DUP3 ADD SWAP2 JUMPDEST POP POP POP POP POP SWAP1 POP DUP3 JUMP JUMPDEST PUSH1 0x9 DUP1 PUSH1 0x0 ADD SLOAD SWAP1 DUP1 PUSH1 0x1 ADD DUP1 SLOAD PUSH2 0x245 SWAP1 PUSH2 0x66E JUMP JUMPDEST DUP1 PUSH1 0x1F ADD PUSH1 0x20 DUP1 SWAP2 DIV MUL PUSH1 0x20 ADD PUSH1 0x40 MLOAD SWAP1 DUP2 ADD PUSH1 0x40 MSTORE DUP1 SWAP3 SWAP2 SWAP1 DUP2 DUP2 MSTORE PUSH1 0x20 ADD DUP3 DUP1 SLOAD PUSH2 0x271 SWAP1 PUSH2 0x66E JUMP JUMPDEST DUP1 ISZERO PUSH2 0x2BE JUMPI DUP1 PUSH1 0x1F LT PUSH2 0x293 JUMPI PUSH2 0x100 DUP1 DUP4 SLOAD DIV MUL DUP4 MSTORE SWAP2 PUSH1 0x20 ADD SWAP2 PUSH2 0x2BE JUMP JUMPDEST DUP3 ADD SWAP2 SWAP1 PUSH1 0x0 MSTORE PUSH1 0x20 PUSH1 0x0 KECCAK256 SWAP1 JUMPDEST DUP2 SLOAD DUP2 MSTORE SWAP1 PUSH1 0x1 ADD SWAP1 PUSH1 0x20 ADD DUP1 DUP4 GT PUSH2 0x2A1 JUMPI DUP3 SWAP1 SUB PUSH1 0x1F AND DUP3 ADD SWAP2 JUMPDEST POP POP POP POP POP SWAP1 POP DUP3 JUMP JUMPDEST DUP1 PUSH1 0x5 DUP2 SWAP1 SSTORE POP PUSH1 0x5 PUSH1 0x0 DUP2 SLOAD DUP1 SWAP3 SWAP2 SWAP1 PUSH2 0x2E2 SWAP1 PUSH2 0x94C JUMP JUMPDEST SWAP2 SWAP1 POP SSTORE POP POP JUMP JUMPDEST PUSH1 0x0 PUSH1 0x40 MLOAD SWAP1 POP SWAP1 JUMP JUMPDEST PUSH1 0x0 DUP1 REVERT JUMPDEST PUSH1 0x0 DUP1 REVERT JUMPDEST PUSH1 0x0 DUP1 REVERT JUMPDEST PUSH1 0x0 DUP1 REVERT JUMPDEST PUSH1 0x0 PUSH1 0x1F NOT PUSH1 0x1F DUP4 ADD AND SWAP1 POP SWAP2 SWAP1 POP JUMP JUMPDEST PUSH32 0x4E487B7100000000000000000000000000000000000000000000000000000000 PUSH1 0x0 MSTORE PUSH1 0x41 PUSH1 0x4 MSTORE PUSH1 0x24 PUSH1 0x0 REVERT JUMPDEST PUSH2 0x351 DUP3 PUSH2 0x308 JUMP JUMPDEST DUP2 ADD DUP2 DUP2 LT PUSH8 0xFFFFFFFFFFFFFFFF DUP3 GT OR ISZERO PUSH2 0x370 JUMPI PUSH2 0x36F PUSH2 0x319 JUMP JUMPDEST JUMPDEST DUP1 PUSH1 0x40 MSTORE POP POP POP JUMP JUMPDEST PUSH1 0x0 PUSH2 0x383 PUSH2 0x2EA JUMP JUMPDEST SWAP1 POP PUSH2 0x38F DUP3 DUP3 PUSH2 0x348 JUMP JUMPDEST SWAP2 SWAP1 POP JUMP JUMPDEST PUSH1 0x0 PUSH8 0xFFFFFFFFFFFFFFFF DUP3 GT ISZERO PUSH2 0x3AF JUMPI PUSH2 0x3AE PUSH2 0x319 JUMP JUMPDEST JUMPDEST PUSH2 0x3B8 DUP3 PUSH2 0x308 JUMP JUMPDEST SWAP1 POP PUSH1 0x20 DUP2 ADD SWAP1 POP SWAP2 SWAP1 POP JUMP JUMPDEST DUP3 DUP2 DUP4 CALLDATACOPY PUSH1 0x0 DUP4 DUP4 ADD MSTORE POP POP POP JUMP JUMPDEST PUSH1 0x0 PUSH2 0x3E7 PUSH2 0x3E2 DUP5 PUSH2 0x394 JUMP JUMPDEST PUSH2 0x379 JUMP JUMPDEST SWAP1 POP DUP3 DUP2 MSTORE PUSH1 0x20 DUP2 ADD DUP5 DUP5 DUP5 ADD GT ISZERO PUSH2 0x403 JUMPI PUSH2 0x402 PUSH2 0x303 JUMP JUMPDEST JUMPDEST PUSH2 0x40E DUP5 DUP3 DUP6 PUSH2 0x3C5 JUMP JUMPDEST POP SWAP4 SWAP3 POP POP POP JUMP JUMPDEST PUSH1 0x0 DUP3 PUSH1 0x1F DUP4 ADD SLT PUSH2 0x42B JUMPI PUSH2 0x42A PUSH2 0x2FE JUMP JUMPDEST JUMPDEST DUP2 CALLDATALOAD PUSH2 0x43B DUP5 DUP3 PUSH1 0x20 DUP7 ADD PUSH2 0x3D4 JUMP JUMPDEST SWAP2 POP POP SWAP3 SWAP2 POP POP JUMP JUMPDEST PUSH1 0x0 DUP2 SWAP1 POP SWAP2 SWAP1 POP JUMP JUMPDEST PUSH2 0x457 DUP2 PUSH2 0x444 JUMP JUMPDEST DUP2 EQ PUSH2 0x462 JUMPI PUSH1 0x0 DUP1 REVERT JUMPDEST POP JUMP JUMPDEST PUSH1 0x0 DUP2 CALLDATALOAD SWAP1 POP PUSH2 0x474 DUP2 PUSH2 0x44E JUMP JUMPDEST SWAP3 SWAP2 POP POP JUMP JUMPDEST PUSH1 0x0 DUP1 PUSH1 0x40 DUP4 DUP6 SUB SLT ISZERO PUSH2 0x491 JUMPI PUSH2 0x490 PUSH2 0x2F4 JUMP JUMPDEST JUMPDEST PUSH1 0x0 DUP4 ADD CALLDATALOAD PUSH8 0xFFFFFFFFFFFFFFFF DUP2 GT ISZERO PUSH2 0x4AF JUMPI PUSH2 0x4AE PUSH2 0x2F9 JUMP JUMPDEST JUMPDEST PUSH2 0x4BB DUP6 DUP3 DUP7 ADD PUSH2 0x416 JUMP JUMPDEST SWAP3 POP POP PUSH1 0x20 PUSH2 0x4CC DUP6 DUP3 DUP7 ADD PUSH2 0x465 JUMP JUMPDEST SWAP2 POP POP SWAP3 POP SWAP3 SWAP1 POP JUMP JUMPDEST PUSH2 0x4DF DUP2 PUSH2 0x444 JUMP JUMPDEST DUP3 MSTORE POP POP JUMP JUMPDEST PUSH1 0x0 PUSH1 0x20 DUP3 ADD SWAP1 POP PUSH2 0x4FA PUSH1 0x0 DUP4 ADD DUP5 PUSH2 0x4D6 JUMP JUMPDEST SWAP3 SWAP2 POP POP JUMP JUMPDEST PUSH1 0x0 DUP2 SWAP1 POP SWAP2 SWAP1 POP JUMP JUMPDEST PUSH2 0x513 DUP2 PUSH2 0x500 JUMP JUMPDEST DUP2 EQ PUSH2 0x51E JUMPI PUSH1 0x0 DUP1 REVERT JUMPDEST POP JUMP JUMPDEST PUSH1 0x0 DUP2 CALLDATALOAD SWAP1 POP PUSH2 0x530 DUP2 PUSH2 0x50A JUMP JUMPDEST SWAP3 SWAP2 POP POP JUMP JUMPDEST PUSH1 0x0 PUSH1 0x20 DUP3 DUP5 SUB SLT ISZERO PUSH2 0x54C JUMPI PUSH2 0x54B PUSH2 0x2F4 JUMP JUMPDEST JUMPDEST PUSH1 0x0 PUSH2 0x55A DUP5 DUP3 DUP6 ADD PUSH2 0x521 JUMP JUMPDEST SWAP2 POP POP SWAP3 SWAP2 POP POP JUMP JUMPDEST PUSH1 0x0 DUP2 MLOAD SWAP1 POP SWAP2 SWAP1 POP JUMP JUMPDEST PUSH1 0x0 DUP3 DUP3 MSTORE PUSH1 0x20 DUP3 ADD SWAP1 POP SWAP3 SWAP2 POP POP JUMP JUMPDEST PUSH1 0x0 JUMPDEST DUP4 DUP2 LT ISZERO PUSH2 0x59D JUMPI DUP1 DUP3 ADD MLOAD DUP2 DUP5 ADD MSTORE PUSH1 0x20 DUP2 ADD SWAP1 POP PUSH2 0x582 JUMP JUMPDEST PUSH1 0x0 DUP5 DUP5 ADD MSTORE POP POP POP POP JUMP JUMPDEST PUSH1 0x0 PUSH2 0x5B4 DUP3 PUSH2 0x563 JUMP JUMPDEST PUSH2 0x5BE DUP2 DUP6 PUSH2 0x56E JUMP JUMPDEST SWAP4 POP PUSH2 0x5CE DUP2 DUP6 PUSH1 0x20 DUP7 ADD PUSH2 0x57F JUMP JUMPDEST PUSH2 0x5D7 DUP2 PUSH2 0x308 JUMP JUMPDEST DUP5 ADD SWAP2 POP POP SWAP3 SWAP2 POP POP JUMP JUMPDEST PUSH1 0x0 PUSH1 0x40 DUP3 ADD SWAP1 POP PUSH2 0x5F7 PUSH1 0x0 DUP4 ADD DUP6 PUSH2 0x4D6 JUMP JUMPDEST DUP2 DUP2 SUB PUSH1 0x20 DUP4 ADD MSTORE PUSH2 0x609 DUP2 DUP5 PUSH2 0x5A9 JUMP JUMPDEST SWAP1 POP SWAP4 SWAP3 POP POP POP JUMP JUMPDEST PUSH1 0x0 PUSH1 0x20 DUP3 DUP5 SUB SLT ISZERO PUSH2 0x628 JUMPI PUSH2 0x627 PUSH2 0x2F4 JUMP JUMPDEST JUMPDEST PUSH1 0x0 PUSH2 0x636 DUP5 DUP3 DUP6 ADD PUSH2 0x465 JUMP JUMPDEST SWAP2 POP POP SWAP3 SWAP2 POP POP JUMP JUMPDEST PUSH32 0x4E487B7100000000000000000000000000000000000000000000000000000000 PUSH1 0x0 MSTORE PUSH1 0x22 PUSH1 0x4 MSTORE PUSH1 0x24 PUSH1 0x0 REVERT JUMPDEST PUSH1 0x0 PUSH1 0x2 DUP3 DIV SWAP1 POP PUSH1 0x1 DUP3 AND DUP1 PUSH2 0x686 JUMPI PUSH1 0x7F DUP3 AND SWAP2 POP JUMPDEST PUSH1 0x20 DUP3 LT DUP2 SUB PUSH2 0x699 JUMPI PUSH2 0x698 PUSH2 0x63F JUMP JUMPDEST JUMPDEST POP SWAP2 SWAP1 POP JUMP JUMPDEST PUSH1 0x0 DUP2 SWAP1 POP DUP2 PUSH1 0x0 MSTORE PUSH1 0x20 PUSH1 0x0 KECCAK256 SWAP1 POP SWAP2 SWAP1 POP JUMP JUMPDEST PUSH1 0x0 PUSH1 0x20 PUSH1 0x1F DUP4 ADD DIV SWAP1 POP SWAP2 SWAP1 POP JUMP JUMPDEST PUSH1 0x0 DUP3 DUP3 SHL SWAP1 POP SWAP3 SWAP2 POP POP JUMP JUMPDEST PUSH1 0x0 PUSH1 0x8 DUP4 MUL PUSH2 0x701 PUSH32 0xFFFFFFFFFFFFFFFFFFFFFFFFFFFFFFFFFFFFFFFFFFFFFFFFFFFFFFFFFFFFFFFF DUP3 PUSH2 0x6C4 JUMP JUMPDEST PUSH2 0x70B DUP7 DUP4 PUSH2 0x6C4 JUMP JUMPDEST SWAP6 POP DUP1 NOT DUP5 AND SWAP4 POP DUP1 DUP7 AND DUP5 OR SWAP3 POP POP POP SWAP4 SWAP3 POP POP POP JUMP JUMPDEST PUSH1 0x0 DUP2 SWAP1 POP SWAP2 SWAP1 POP JUMP JUMPDEST PUSH1 0x0 PUSH2 0x748 PUSH2 0x743 PUSH2 0x73E DUP5 PUSH2 0x500 JUMP JUMPDEST PUSH2 0x723 JUMP JUMPDEST PUSH2 0x500 JUMP JUMPDEST SWAP1 POP SWAP2 SWAP1 POP JUMP JUMPDEST PUSH1 0x0 DUP2 SWAP1 POP SWAP2 SWAP1 POP JUMP JUMPDEST PUSH2 0x762 DUP4 PUSH2 0x72D JUMP JUMPDEST PUSH2 0x776 PUSH2 0x76E DUP3 PUSH2 0x74F JUMP JUMPDEST DUP5 DUP5 SLOAD PUSH2 0x6D1 JUMP JUMPDEST DUP3 SSTORE POP POP POP POP JUMP JUMPDEST PUSH1 0x0 SWAP1 JUMP JUMPDEST PUSH2 0x78B PUSH2 0x77E JUMP JUMPDEST PUSH2 0x796 DUP2 DUP5 DUP5 PUSH2 0x759 JUMP JUMPDEST POP POP POP JUMP JUMPDEST JUMPDEST DUP2 DUP2 LT ISZERO PUSH2 0x7BA JUMPI PUSH2 0x7AF PUSH1 0x0 DUP3 PUSH2 0x783 JUMP JUMPDEST PUSH1 0x1 DUP2 ADD SWAP1 POP PUSH2 0x79C JUMP JUMPDEST POP POP JUMP JUMPDEST PUSH1 0x1F DUP3 GT ISZERO PUSH2 0x7FF JUMPI PUSH2 0x7D0 DUP2 PUSH2 0x69F JUMP JUMPDEST PUSH2 0x7D9 DUP5 PUSH2 0x6B4 JUMP JUMPDEST DUP2 ADD PUSH1 0x20 DUP6 LT ISZERO PUSH2 0x7E8 JUMPI DUP2 SWAP1 POP JUMPDEST PUSH2 0x7FC PUSH2 0x7F4 DUP6 PUSH2 0x6B4 JUMP JUMPDEST DUP4 ADD DUP3 PUSH2 0x79B JUMP JUMPDEST POP POP JUMPDEST POP POP POP JUMP JUMPDEST PUSH1 0x0 DUP3 DUP3 SHR SWAP1 POP SWAP3 SWAP2 POP POP JUMP JUMPDEST PUSH1 0x0 PUSH2 0x822 PUSH1 0x0 NOT DUP5 PUSH1 0x8 MUL PUSH2 0x804 JUMP JUMPDEST NOT DUP1 DUP4 AND SWAP2 POP POP SWAP3 SWAP2 POP POP JUMP JUMPDEST PUSH1 0x0 PUSH2 0x83B DUP4 DUP4 PUSH2 0x811 JUMP JUMPDEST SWAP2 POP DUP3 PUSH1 0x2 MUL DUP3 OR SWAP1 POP SWAP3 SWAP2 POP POP JUMP JUMPDEST PUSH2 0x854 DUP3 PUSH2 0x563 JUMP JUMPDEST PUSH8 0xFFFFFFFFFFFFFFFF DUP2 GT ISZERO PUSH2 0x86D JUMPI PUSH2 0x86C PUSH2 0x319 JUMP JUMPDEST JUMPDEST PUSH2 0x877 DUP3 SLOAD PUSH2 0x66E JUMP JUMPDEST PUSH2 0x882 DUP3 DUP3 DUP6 PUSH2 0x7BE JUMP JUMPDEST PUSH1 0x0 PUSH1 0x20 SWAP1 POP PUSH1 0x1F DUP4 GT PUSH1 0x1 DUP2 EQ PUSH2 0x8B5 JUMPI PUSH1 0x0 DUP5 ISZERO PUSH2 0x8A3 JUMPI DUP3 DUP8 ADD MLOAD SWAP1 POP JUMPDEST PUSH2 0x8AD DUP6 DUP3 PUSH2 0x82F JUMP JUMPDEST DUP7 SSTORE POP PUSH2 0x915 JUMP JUMPDEST PUSH1 0x1F NOT DUP5 AND PUSH2 0x8C3 DUP7 PUSH2 0x69F JUMP JUMPDEST PUSH1 0x0 JUMPDEST DUP3 DUP2 LT ISZERO PUSH2 0x8EB JUMPI DUP5 DUP10 ADD MLOAD DUP3 SSTORE PUSH1 0x1 DUP3 ADD SWAP2 POP PUSH1 0x20 DUP6 ADD SWAP5 POP PUSH1 0x20 DUP2 ADD SWAP1 POP PUSH2 0x8C6 JUMP JUMPDEST DUP7 DUP4 LT ISZERO PUSH2 0x908 JUMPI DUP5 DUP10 ADD MLOAD PUSH2 0x904 PUSH1 0x1F DUP10 AND DUP3 PUSH2 0x811 JUMP JUMPDEST DUP4 SSTORE POP JUMPDEST PUSH1 0x1 PUSH1 0x2 DUP9 MUL ADD DUP9 SSTORE POP POP POP JUMPDEST POP POP POP POP POP POP JUMP JUMPDEST PUSH32 0x4E487B7100000000000000000000000000000000000000000000000000000000 PUSH1 0x0 MSTORE PUSH1 0x11 PUSH1 0x4 MSTORE PUSH1 0x24 PUSH1 0x0 REVERT JUMPDEST PUSH1 0x0 PUSH2 0x957 DUP3 PUSH2 0x444 JUMP JUMPDEST SWAP2 POP PUSH32 0x7FFFFFFFFFFFFFFFFFFFFFFFFFFFFFFFFFFFFFFFFFFFFFFFFFFFFFFFFFFFFFFF DUP3 SUB PUSH2 0x989 JUMPI PUSH2 0x988 PUSH2 0x91D JUMP JUMPDEST JUMPDEST PUSH1 0x1 DUP3 ADD SWAP1 POP SWAP2 SWAP1 POP JUMP INVALID LOG2 PUSH5 0x6970667358 0x22 SLT KECCAK256 PUSH18 0x3BF1E35107FD088E9D1C476AF21ABA73068E DUP8 SWAP5 0x4C 0xAE 0xEA RETURNDATACOPY PUSH29 0x197CA6A9AAA564736F6C63430008120033000000000000000000000000 "
				},
				"gasEstimates": {
					"creation": {
						"codeDepositCost": "501200",
						"executionCost": "infinite",
						"totalCost": "infinite"
					},
					"external": {
						"addNamesToList(string,int256)": "infinite",
						"names(uint256)": "infinite",
						"p2()": "infinite",
						"retrieve()": "2437",
						"store(int256)": "infinite"
					}
				},
				"methodIdentifiers": {
					"addNamesToList(string,int256)": "07c00c01",
					"names(uint256)": "4622ab03",
					"p2()": "81d01ed3",
					"retrieve()": "2e64cec1",
					"store(int256)": "d80deced"
				}
			},
			"storageLayout": {
				"storage": [
					{
						"astId": 4,
						"contract": "SimpleStorage.sol:SimpleStorage",
						"label": "hasdone",
						"offset": 0,
						"slot": "0",
						"type": "t_bool"
					},
					{
						"astId": 7,
						"contract": "SimpleStorage.sol:SimpleStorage",
						"label": "favnum",
						"offset": 0,
						"slot": "1",
						"type": "t_uint256"
					},
					{
						"astId": 10,
						"contract": "SimpleStorage.sol:SimpleStorage",
						"label": "val",
						"offset": 0,
						"slot": "2",
						"type": "t_string_storage"
					},
					{
						"astId": 13,
						"contract": "SimpleStorage.sol:SimpleStorage",
						"label": "myAddress",
						"offset": 0,
						"slot": "3",
						"type": "t_address"
					},
					{
						"astId": 16,
						"contract": "SimpleStorage.sol:SimpleStorage",
						"label": "simplicity",
						"offset": 0,
						"slot": "4",
						"type": "t_bytes32"
					},
					{
						"astId": 19,
						"contract": "SimpleStorage.sol:SimpleStorage",
						"label": "num",
						"offset": 0,
						"slot": "5",
						"type": "t_int256"
					},
					{
						"astId": 28,
						"contract": "SimpleStorage.sol:SimpleStorage",
						"label": "numbers",
						"offset": 0,
						"slot": "6",
						"type": "t_array(t_uint256)dyn_storage"
					},
					{
						"astId": 40,
						"contract": "SimpleStorage.sol:SimpleStorage",
						"label": "p1",
						"offset": 0,
						"slot": "7",
						"type": "t_struct(Person)33_storage"
					},
					{
						"astId": 47,
						"contract": "SimpleStorage.sol:SimpleStorage",
						"label": "p2",
						"offset": 0,
						"slot": "9",
						"type": "t_struct(Person)33_storage"
					},
					{
						"astId": 51,
						"contract": "SimpleStorage.sol:SimpleStorage",
						"label": "names",
						"offset": 0,
						"slot": "11",
						"type": "t_array(t_struct(Person)33_storage)dyn_storage"
					}
				],
				"types": {
					"t_address": {
						"encoding": "inplace",
						"label": "address",
						"numberOfBytes": "20"
					},
					"t_array(t_struct(Person)33_storage)dyn_storage": {
						"base": "t_struct(Person)33_storage",
						"encoding": "dynamic_array",
						"label": "struct SimpleStorage.Person[]",
						"numberOfBytes": "32"
					},
					"t_array(t_uint256)dyn_storage": {
						"base": "t_uint256",
						"encoding": "dynamic_array",
						"label": "uint256[]",
						"numberOfBytes": "32"
					},
					"t_bool": {
						"encoding": "inplace",
						"label": "bool",
						"numberOfBytes": "1"
					},
					"t_bytes32": {
						"encoding": "inplace",
						"label": "bytes32",
						"numberOfBytes": "32"
					},
					"t_int256": {
						"encoding": "inplace",
						"label": "int256",
						"numberOfBytes": "32"
					},
					"t_string_storage": {
						"encoding": "bytes",
						"label": "string",
						"numberOfBytes": "32"
					},
					"t_struct(Person)33_storage": {
						"encoding": "inplace",
						"label": "struct SimpleStorage.Person",
						"members": [
							{
								"astId": 30,
								"contract": "SimpleStorage.sol:SimpleStorage",
								"label": "num",
								"offset": 0,
								"slot": "0",
								"type": "t_int256"
							},
							{
								"astId": 32,
								"contract": "SimpleStorage.sol:SimpleStorage",
								"label": "name",
								"offset": 0,
								"slot": "1",
								"type": "t_string_storage"
							}
						],
						"numberOfBytes": "64"
					},
					"t_uint256": {
						"encoding": "inplace",
						"label": "uint256",
						"numberOfBytes": "32"
					}
				}
			},
			"userdoc": {
				"kind": "user",
				"methods": {},
				"version": 1
			}
		}
	}
}